{
	"data": {
		"bytecode": {
			"linkReferences": {},
			"object": "608060405260008060006101000a81548160ff02191690831515021790555034801561002a57600080fd5b506101538061003a6000396000f300608060405260043610610062576000357c0100000000000000000000000000000000000000000000000000000000900463ffffffff16806312253a6c14610067578063c4bc5da51461007e578063d0e30db014610095578063db2e21bc1461009f575b600080fd5b34801561007357600080fd5b5061007c6100b6565b005b34801561008a57600080fd5b506100936100d2565b005b61009d6100ee565b005b3480156100ab57600080fd5b506100b461010b565b005b60016000806101000a81548160ff021916908315150217905550565b60008060006101000a81548160ff021916908315150217905550565b6000809054906101000a900460ff1615151561010957600080fd5b565b6000809054906101000a900460ff16151561012557600080fd5b5600a165627a7a723058209968b56b092c47010a720ddd2b1724bc08b0b656dfb25c9c87cd35e9cde3f3c70029",
			"opcodes": "PUSH1 0x80 PUSH1 0x40 MSTORE PUSH1 0x0 DUP1 PUSH1 0x0 PUSH2 0x100 EXP DUP2 SLOAD DUP2 PUSH1 0xFF MUL NOT AND SWAP1 DUP4 ISZERO ISZERO MUL OR SWAP1 SSTORE POP CALLVALUE DUP1 ISZERO PUSH2 0x2A JUMPI PUSH1 0x0 DUP1 REVERT JUMPDEST POP PUSH2 0x153 DUP1 PUSH2 0x3A PUSH1 0x0 CODECOPY PUSH1 0x0 RETURN STOP PUSH1 0x80 PUSH1 0x40 MSTORE PUSH1 0x4 CALLDATASIZE LT PUSH2 0x62 JUMPI PUSH1 0x0 CALLDATALOAD PUSH29 0x100000000000000000000000000000000000000000000000000000000 SWAP1 DIV PUSH4 0xFFFFFFFF AND DUP1 PUSH4 0x12253A6C EQ PUSH2 0x67 JUMPI DUP1 PUSH4 0xC4BC5DA5 EQ PUSH2 0x7E JUMPI DUP1 PUSH4 0xD0E30DB0 EQ PUSH2 0x95 JUMPI DUP1 PUSH4 0xDB2E21BC EQ PUSH2 0x9F JUMPI JUMPDEST PUSH1 0x0 DUP1 REVERT JUMPDEST CALLVALUE DUP1 ISZERO PUSH2 0x73 JUMPI PUSH1 0x0 DUP1 REVERT JUMPDEST POP PUSH2 0x7C PUSH2 0xB6 JUMP JUMPDEST STOP JUMPDEST CALLVALUE DUP1 ISZERO PUSH2 0x8A JUMPI PUSH1 0x0 DUP1 REVERT JUMPDEST POP PUSH2 0x93 PUSH2 0xD2 JUMP JUMPDEST STOP JUMPDEST PUSH2 0x9D PUSH2 0xEE JUMP JUMPDEST STOP JUMPDEST CALLVALUE DUP1 ISZERO PUSH2 0xAB JUMPI PUSH1 0x0 DUP1 REVERT JUMPDEST POP PUSH2 0xB4 PUSH2 0x10B JUMP JUMPDEST STOP JUMPDEST PUSH1 0x1 PUSH1 0x0 DUP1 PUSH2 0x100 EXP DUP2 SLOAD DUP2 PUSH1 0xFF MUL NOT AND SWAP1 DUP4 ISZERO ISZERO MUL OR SWAP1 SSTORE POP JUMP JUMPDEST PUSH1 0x0 DUP1 PUSH1 0x0 PUSH2 0x100 EXP DUP2 SLOAD DUP2 PUSH1 0xFF MUL NOT AND SWAP1 DUP4 ISZERO ISZERO MUL OR SWAP1 SSTORE POP JUMP JUMPDEST PUSH1 0x0 DUP1 SWAP1 SLOAD SWAP1 PUSH2 0x100 EXP SWAP1 DIV PUSH1 0xFF AND ISZERO ISZERO ISZERO PUSH2 0x109 JUMPI PUSH1 0x0 DUP1 REVERT JUMPDEST JUMP JUMPDEST PUSH1 0x0 DUP1 SWAP1 SLOAD SWAP1 PUSH2 0x100 EXP SWAP1 DIV PUSH1 0xFF AND ISZERO ISZERO PUSH2 0x125 JUMPI PUSH1 0x0 DUP1 REVERT JUMPDEST JUMP STOP LOG1 PUSH6 0x627A7A723058 KECCAK256 SWAP10 PUSH9 0xB56B092C47010A720D 0xdd 0x2b OR 0x24 0xbc ADDMOD 0xb0 0xb6 JUMP 0xdf 0xb2 0x5c SWAP13 DUP8 0xcd CALLDATALOAD 0xe9 0xcd 0xe3 RETURN 0xc7 STOP 0x29 "
		},
		"gasEstimates": {
			"creation": {
				"codeDepositCost": "67800",
				"executionCost": "20384",
				"totalCost": "88184"
			},
			"external": {
				"deposit()": "415",
				"emergencyWithdraw()": "458",
				"resumeContract()": "20422",
				"stopContract()": "20400"
			}
		},
		"methodIdentifiers": {
			"deposit()": "d0e30db0",
			"emergencyWithdraw()": "db2e21bc",
			"resumeContract()": "c4bc5da5",
			"stopContract()": "12253a6c"
		}
	},
	"abi": [
		{
			"constant": false,
			"inputs": [],
			"name": "stopContract",
			"outputs": [],
			"payable": false,
			"stateMutability": "nonpayable",
			"type": "function"
		},
		{
			"constant": false,
			"inputs": [],
			"name": "resumeContract",
			"outputs": [],
			"payable": false,
			"stateMutability": "nonpayable",
			"type": "function"
		},
		{
			"constant": false,
			"inputs": [],
			"name": "deposit",
			"outputs": [],
			"payable": true,
			"stateMutability": "payable",
			"type": "function"
		},
		{
			"constant": false,
			"inputs": [],
			"name": "emergencyWithdraw",
			"outputs": [],
			"payable": false,
			"stateMutability": "nonpayable",
			"type": "function"
		}
	]
}