{
	"data": {
		"bytecode": {
			"linkReferences": {},
			"object": "608060405260008060006101000a81548160ff0219169083600381111561002257fe5b02179055504260015534801561003757600080fd5b50610459806100476000396000f300608060405260043610610078576000357c0100000000000000000000000000000000000000000000000000000000900463ffffffff1680631998aeef1461007d5780633cecd71914610087578063a475b5dd1461009e578063c040e6b8146100b5578063d8270dce146100ee578063ec29b40514610119575b600080fd5b610085610130565b005b34801561009357600080fd5b5061009c6101f9565b005b3480156100aa57600080fd5b506100b3610230565b005b3480156100c157600080fd5b506100ca6102f9565b604051808260038111156100da57fe5b60ff16815260200191505060405180910390f35b3480156100fa57600080fd5b5061010361030b565b6040518082815260200191505060405180910390f35b34801561012557600080fd5b5061012e610311565b005b6000600381111561013d57fe5b6000809054906101000a900460ff16600381111561015757fe5b14801561016b57506207e900600154014210155b15610179576101786103e2565b5b6001600381111561018657fe5b6000809054906101000a900460ff1660038111156101a057fe5b1480156101b45750620d2f00600154014210155b156101c2576101c16103e2565b5b60008060038111156101d057fe5b6000809054906101000a900460ff1660038111156101ea57fe5b1415156101f657600080fd5b50565b600380600381111561020757fe5b6000809054906101000a900460ff16600381111561022157fe5b14151561022d57600080fd5b50565b6000600381111561023d57fe5b6000809054906101000a900460ff16600381111561025757fe5b14801561026b57506207e900600154014210155b15610279576102786103e2565b5b6001600381111561028657fe5b6000809054906101000a900460ff1660038111156102a057fe5b1480156102b45750620d2f00600154014210155b156102c2576102c16103e2565b5b60018060038111156102d057fe5b6000809054906101000a900460ff1660038111156102ea57fe5b1415156102f657600080fd5b50565b6000809054906101000a900460ff1681565b60015481565b6000600381111561031e57fe5b6000809054906101000a900460ff16600381111561033857fe5b14801561034c57506207e900600154014210155b1561035a576103596103e2565b5b6001600381111561036757fe5b6000809054906101000a900460ff16600381111561038157fe5b1480156103955750620d2f00600154014210155b156103a3576103a26103e2565b5b60028060038111156103b157fe5b6000809054906101000a900460ff1660038111156103cb57fe5b1415156103d757600080fd5b6103df6103e2565b50565b60016000809054906101000a900460ff1660038111156103fe57fe5b01600381111561040a57fe5b6000806101000a81548160ff0219169083600381111561042657fe5b02179055505600a165627a7a72305820aedb9968d972fd7f73e5f54d8697158bcd7ed307a9df988df00984365894a0560029",
			"opcodes": "PUSH1 0x80 PUSH1 0x40 MSTORE PUSH1 0x0 DUP1 PUSH1 0x0 PUSH2 0x100 EXP DUP2 SLOAD DUP2 PUSH1 0xFF MUL NOT AND SWAP1 DUP4 PUSH1 0x3 DUP2 GT ISZERO PUSH2 0x22 JUMPI INVALID JUMPDEST MUL OR SWAP1 SSTORE POP TIMESTAMP PUSH1 0x1 SSTORE CALLVALUE DUP1 ISZERO PUSH2 0x37 JUMPI PUSH1 0x0 DUP1 REVERT JUMPDEST POP PUSH2 0x459 DUP1 PUSH2 0x47 PUSH1 0x0 CODECOPY PUSH1 0x0 RETURN STOP PUSH1 0x80 PUSH1 0x40 MSTORE PUSH1 0x4 CALLDATASIZE LT PUSH2 0x78 JUMPI PUSH1 0x0 CALLDATALOAD PUSH29 0x100000000000000000000000000000000000000000000000000000000 SWAP1 DIV PUSH4 0xFFFFFFFF AND DUP1 PUSH4 0x1998AEEF EQ PUSH2 0x7D JUMPI DUP1 PUSH4 0x3CECD719 EQ PUSH2 0x87 JUMPI DUP1 PUSH4 0xA475B5DD EQ PUSH2 0x9E JUMPI DUP1 PUSH4 0xC040E6B8 EQ PUSH2 0xB5 JUMPI DUP1 PUSH4 0xD8270DCE EQ PUSH2 0xEE JUMPI DUP1 PUSH4 0xEC29B405 EQ PUSH2 0x119 JUMPI JUMPDEST PUSH1 0x0 DUP1 REVERT JUMPDEST PUSH2 0x85 PUSH2 0x130 JUMP JUMPDEST STOP JUMPDEST CALLVALUE DUP1 ISZERO PUSH2 0x93 JUMPI PUSH1 0x0 DUP1 REVERT JUMPDEST POP PUSH2 0x9C PUSH2 0x1F9 JUMP JUMPDEST STOP JUMPDEST CALLVALUE DUP1 ISZERO PUSH2 0xAA JUMPI PUSH1 0x0 DUP1 REVERT JUMPDEST POP PUSH2 0xB3 PUSH2 0x230 JUMP JUMPDEST STOP JUMPDEST CALLVALUE DUP1 ISZERO PUSH2 0xC1 JUMPI PUSH1 0x0 DUP1 REVERT JUMPDEST POP PUSH2 0xCA PUSH2 0x2F9 JUMP JUMPDEST PUSH1 0x40 MLOAD DUP1 DUP3 PUSH1 0x3 DUP2 GT ISZERO PUSH2 0xDA JUMPI INVALID JUMPDEST PUSH1 0xFF AND DUP2 MSTORE PUSH1 0x20 ADD SWAP2 POP POP PUSH1 0x40 MLOAD DUP1 SWAP2 SUB SWAP1 RETURN JUMPDEST CALLVALUE DUP1 ISZERO PUSH2 0xFA JUMPI PUSH1 0x0 DUP1 REVERT JUMPDEST POP PUSH2 0x103 PUSH2 0x30B JUMP JUMPDEST PUSH1 0x40 MLOAD DUP1 DUP3 DUP2 MSTORE PUSH1 0x20 ADD SWAP2 POP POP PUSH1 0x40 MLOAD DUP1 SWAP2 SUB SWAP1 RETURN JUMPDEST CALLVALUE DUP1 ISZERO PUSH2 0x125 JUMPI PUSH1 0x0 DUP1 REVERT JUMPDEST POP PUSH2 0x12E PUSH2 0x311 JUMP JUMPDEST STOP JUMPDEST PUSH1 0x0 PUSH1 0x3 DUP2 GT ISZERO PUSH2 0x13D JUMPI INVALID JUMPDEST PUSH1 0x0 DUP1 SWAP1 SLOAD SWAP1 PUSH2 0x100 EXP SWAP1 DIV PUSH1 0xFF AND PUSH1 0x3 DUP2 GT ISZERO PUSH2 0x157 JUMPI INVALID JUMPDEST EQ DUP1 ISZERO PUSH2 0x16B JUMPI POP PUSH3 0x7E900 PUSH1 0x1 SLOAD ADD TIMESTAMP LT ISZERO JUMPDEST ISZERO PUSH2 0x179 JUMPI PUSH2 0x178 PUSH2 0x3E2 JUMP JUMPDEST JUMPDEST PUSH1 0x1 PUSH1 0x3 DUP2 GT ISZERO PUSH2 0x186 JUMPI INVALID JUMPDEST PUSH1 0x0 DUP1 SWAP1 SLOAD SWAP1 PUSH2 0x100 EXP SWAP1 DIV PUSH1 0xFF AND PUSH1 0x3 DUP2 GT ISZERO PUSH2 0x1A0 JUMPI INVALID JUMPDEST EQ DUP1 ISZERO PUSH2 0x1B4 JUMPI POP PUSH3 0xD2F00 PUSH1 0x1 SLOAD ADD TIMESTAMP LT ISZERO JUMPDEST ISZERO PUSH2 0x1C2 JUMPI PUSH2 0x1C1 PUSH2 0x3E2 JUMP JUMPDEST JUMPDEST PUSH1 0x0 DUP1 PUSH1 0x3 DUP2 GT ISZERO PUSH2 0x1D0 JUMPI INVALID JUMPDEST PUSH1 0x0 DUP1 SWAP1 SLOAD SWAP1 PUSH2 0x100 EXP SWAP1 DIV PUSH1 0xFF AND PUSH1 0x3 DUP2 GT ISZERO PUSH2 0x1EA JUMPI INVALID JUMPDEST EQ ISZERO ISZERO PUSH2 0x1F6 JUMPI PUSH1 0x0 DUP1 REVERT JUMPDEST POP JUMP JUMPDEST PUSH1 0x3 DUP1 PUSH1 0x3 DUP2 GT ISZERO PUSH2 0x207 JUMPI INVALID JUMPDEST PUSH1 0x0 DUP1 SWAP1 SLOAD SWAP1 PUSH2 0x100 EXP SWAP1 DIV PUSH1 0xFF AND PUSH1 0x3 DUP2 GT ISZERO PUSH2 0x221 JUMPI INVALID JUMPDEST EQ ISZERO ISZERO PUSH2 0x22D JUMPI PUSH1 0x0 DUP1 REVERT JUMPDEST POP JUMP JUMPDEST PUSH1 0x0 PUSH1 0x3 DUP2 GT ISZERO PUSH2 0x23D JUMPI INVALID JUMPDEST PUSH1 0x0 DUP1 SWAP1 SLOAD SWAP1 PUSH2 0x100 EXP SWAP1 DIV PUSH1 0xFF AND PUSH1 0x3 DUP2 GT ISZERO PUSH2 0x257 JUMPI INVALID JUMPDEST EQ DUP1 ISZERO PUSH2 0x26B JUMPI POP PUSH3 0x7E900 PUSH1 0x1 SLOAD ADD TIMESTAMP LT ISZERO JUMPDEST ISZERO PUSH2 0x279 JUMPI PUSH2 0x278 PUSH2 0x3E2 JUMP JUMPDEST JUMPDEST PUSH1 0x1 PUSH1 0x3 DUP2 GT ISZERO PUSH2 0x286 JUMPI INVALID JUMPDEST PUSH1 0x0 DUP1 SWAP1 SLOAD SWAP1 PUSH2 0x100 EXP SWAP1 DIV PUSH1 0xFF AND PUSH1 0x3 DUP2 GT ISZERO PUSH2 0x2A0 JUMPI INVALID JUMPDEST EQ DUP1 ISZERO PUSH2 0x2B4 JUMPI POP PUSH3 0xD2F00 PUSH1 0x1 SLOAD ADD TIMESTAMP LT ISZERO JUMPDEST ISZERO PUSH2 0x2C2 JUMPI PUSH2 0x2C1 PUSH2 0x3E2 JUMP JUMPDEST JUMPDEST PUSH1 0x1 DUP1 PUSH1 0x3 DUP2 GT ISZERO PUSH2 0x2D0 JUMPI INVALID JUMPDEST PUSH1 0x0 DUP1 SWAP1 SLOAD SWAP1 PUSH2 0x100 EXP SWAP1 DIV PUSH1 0xFF AND PUSH1 0x3 DUP2 GT ISZERO PUSH2 0x2EA JUMPI INVALID JUMPDEST EQ ISZERO ISZERO PUSH2 0x2F6 JUMPI PUSH1 0x0 DUP1 REVERT JUMPDEST POP JUMP JUMPDEST PUSH1 0x0 DUP1 SWAP1 SLOAD SWAP1 PUSH2 0x100 EXP SWAP1 DIV PUSH1 0xFF AND DUP2 JUMP JUMPDEST PUSH1 0x1 SLOAD DUP2 JUMP JUMPDEST PUSH1 0x0 PUSH1 0x3 DUP2 GT ISZERO PUSH2 0x31E JUMPI INVALID JUMPDEST PUSH1 0x0 DUP1 SWAP1 SLOAD SWAP1 PUSH2 0x100 EXP SWAP1 DIV PUSH1 0xFF AND PUSH1 0x3 DUP2 GT ISZERO PUSH2 0x338 JUMPI INVALID JUMPDEST EQ DUP1 ISZERO PUSH2 0x34C JUMPI POP PUSH3 0x7E900 PUSH1 0x1 SLOAD ADD TIMESTAMP LT ISZERO JUMPDEST ISZERO PUSH2 0x35A JUMPI PUSH2 0x359 PUSH2 0x3E2 JUMP JUMPDEST JUMPDEST PUSH1 0x1 PUSH1 0x3 DUP2 GT ISZERO PUSH2 0x367 JUMPI INVALID JUMPDEST PUSH1 0x0 DUP1 SWAP1 SLOAD SWAP1 PUSH2 0x100 EXP SWAP1 DIV PUSH1 0xFF AND PUSH1 0x3 DUP2 GT ISZERO PUSH2 0x381 JUMPI INVALID JUMPDEST EQ DUP1 ISZERO PUSH2 0x395 JUMPI POP PUSH3 0xD2F00 PUSH1 0x1 SLOAD ADD TIMESTAMP LT ISZERO JUMPDEST ISZERO PUSH2 0x3A3 JUMPI PUSH2 0x3A2 PUSH2 0x3E2 JUMP JUMPDEST JUMPDEST PUSH1 0x2 DUP1 PUSH1 0x3 DUP2 GT ISZERO PUSH2 0x3B1 JUMPI INVALID JUMPDEST PUSH1 0x0 DUP1 SWAP1 SLOAD SWAP1 PUSH2 0x100 EXP SWAP1 DIV PUSH1 0xFF AND PUSH1 0x3 DUP2 GT ISZERO PUSH2 0x3CB JUMPI INVALID JUMPDEST EQ ISZERO ISZERO PUSH2 0x3D7 JUMPI PUSH1 0x0 DUP1 REVERT JUMPDEST PUSH2 0x3DF PUSH2 0x3E2 JUMP JUMPDEST POP JUMP JUMPDEST PUSH1 0x1 PUSH1 0x0 DUP1 SWAP1 SLOAD SWAP1 PUSH2 0x100 EXP SWAP1 DIV PUSH1 0xFF AND PUSH1 0x3 DUP2 GT ISZERO PUSH2 0x3FE JUMPI INVALID JUMPDEST ADD PUSH1 0x3 DUP2 GT ISZERO PUSH2 0x40A JUMPI INVALID JUMPDEST PUSH1 0x0 DUP1 PUSH2 0x100 EXP DUP2 SLOAD DUP2 PUSH1 0xFF MUL NOT AND SWAP1 DUP4 PUSH1 0x3 DUP2 GT ISZERO PUSH2 0x426 JUMPI INVALID JUMPDEST MUL OR SWAP1 SSTORE POP JUMP STOP LOG1 PUSH6 0x627A7A723058 KECCAK256 0xae 0xdb SWAP10 PUSH9 0xD972FD7F73E5F54D86 SWAP8 ISZERO DUP12 0xcd PUSH31 0xD307A9DF988DF00984365894A0560029000000000000000000000000000000 "
		},
		"gasEstimates": {
			"creation": {
				"codeDepositCost": "222600",
				"executionCost": "40555",
				"totalCost": "263155"
			},
			"external": {
				"bid()": "infinite",
				"claimGoods()": "infinite",
				"cleanup()": "477",
				"creationTime()": "482",
				"reveal()": "infinite",
				"stage()": "528"
			},
			"internal": {
				"nextStage()": "20590"
			}
		},
		"methodIdentifiers": {
			"bid()": "1998aeef",
			"claimGoods()": "ec29b405",
			"cleanup()": "3cecd719",
			"creationTime()": "d8270dce",
			"reveal()": "a475b5dd",
			"stage()": "c040e6b8"
		}
	},
	"abi": [
		{
			"constant": false,
			"inputs": [],
			"name": "bid",
			"outputs": [],
			"payable": true,
			"stateMutability": "payable",
			"type": "function"
		},
		{
			"constant": false,
			"inputs": [],
			"name": "cleanup",
			"outputs": [],
			"payable": false,
			"stateMutability": "nonpayable",
			"type": "function"
		},
		{
			"constant": false,
			"inputs": [],
			"name": "reveal",
			"outputs": [],
			"payable": false,
			"stateMutability": "nonpayable",
			"type": "function"
		},
		{
			"constant": true,
			"inputs": [],
			"name": "stage",
			"outputs": [
				{
					"name": "",
					"type": "uint8"
				}
			],
			"payable": false,
			"stateMutability": "view",
			"type": "function"
		},
		{
			"constant": true,
			"inputs": [],
			"name": "creationTime",
			"outputs": [
				{
					"name": "",
					"type": "uint256"
				}
			],
			"payable": false,
			"stateMutability": "view",
			"type": "function"
		},
		{
			"constant": false,
			"inputs": [],
			"name": "claimGoods",
			"outputs": [],
			"payable": false,
			"stateMutability": "nonpayable",
			"type": "function"
		}
	]
}