{
	"Solidity Patterns/ProxyDelegate.sol": {
		"Proxy": {
			"abi": [
				{
					"constant": false,
					"inputs": [
						{
							"name": "newDelegateAddress",
							"type": "address"
						}
					],
					"name": "upgradeDelegate",
					"outputs": [],
					"payable": false,
					"stateMutability": "nonpayable",
					"type": "function"
				},
				{
					"payable": true,
					"stateMutability": "payable",
					"type": "fallback"
				}
			],
			"devdoc": {
				"methods": {}
			},
			"evm": {
				"assembly": "    /* \"Solidity Patterns/ProxyDelegate.sol\":122:718  contract Proxy {... */\n  mstore(0x40, 0x80)\n    /* \"Solidity Patterns/ProxyDelegate.sol\":182:192  msg.sender */\n  caller\n    /* \"Solidity Patterns/ProxyDelegate.sol\":166:192  address owner = msg.sender */\n  0x1\n  exp(0x100, 0x0)\n  dup2\n  sload\n  dup2\n  0xffffffffffffffffffffffffffffffffffffffff\n  mul\n  not\n  and\n  swap1\n  dup4\n  0xffffffffffffffffffffffffffffffffffffffff\n  and\n  mul\n  or\n  swap1\n  sstore\n  pop\n    /* \"Solidity Patterns/ProxyDelegate.sol\":122:718  contract Proxy {... */\n  callvalue\n    /* \"--CODEGEN--\":8:17   */\n  dup1\n    /* \"--CODEGEN--\":5:7   */\n  iszero\n  tag_1\n  jumpi\n    /* \"--CODEGEN--\":30:31   */\n  0x0\n    /* \"--CODEGEN--\":27:28   */\n  dup1\n    /* \"--CODEGEN--\":20:32   */\n  revert\n    /* \"--CODEGEN--\":5:7   */\ntag_1:\n    /* \"Solidity Patterns/ProxyDelegate.sol\":122:718  contract Proxy {... */\n  pop\n  dataSize(sub_0)\n  dup1\n  dataOffset(sub_0)\n  0x0\n  codecopy\n  0x0\n  return\nstop\n\nsub_0: assembly {\n        /* \"Solidity Patterns/ProxyDelegate.sol\":122:718  contract Proxy {... */\n      mstore(0x40, 0x80)\n      jumpi(tag_1, lt(calldatasize, 0x4))\n      calldataload(0x0)\n      0x100000000000000000000000000000000000000000000000000000000\n      swap1\n      div\n      0xffffffff\n      and\n      dup1\n      0x2da4e75c\n      eq\n      tag_2\n      jumpi\n    tag_1:\n        /* \"Solidity Patterns/ProxyDelegate.sol\":431:432  0 */\n      0x0\n        /* \"Solidity Patterns/ProxyDelegate.sol\":425:433  sload(0) */\n      sload\n        /* \"Solidity Patterns/ProxyDelegate.sol\":469:481  calldatasize */\n      calldatasize\n        /* \"Solidity Patterns/ProxyDelegate.sol\":464:467  0x0 */\n      0x0\n        /* \"Solidity Patterns/ProxyDelegate.sol\":459:462  0x0 */\n      dup1\n        /* \"Solidity Patterns/ProxyDelegate.sol\":446:482  calldatacopy(0x0, 0x0, calldatasize) */\n      calldatacopy\n        /* \"Solidity Patterns/ProxyDelegate.sol\":560:561  0 */\n      0x0\n        /* \"Solidity Patterns/ProxyDelegate.sol\":555:558  0x0 */\n      dup1\n        /* \"Solidity Patterns/ProxyDelegate.sol\":541:553  calldatasize */\n      calldatasize\n        /* \"Solidity Patterns/ProxyDelegate.sol\":536:539  0x0 */\n      0x0\n        /* \"Solidity Patterns/ProxyDelegate.sol\":527:534  _target */\n      dup5\n        /* \"Solidity Patterns/ProxyDelegate.sol\":522:525  gas */\n      gas\n        /* \"Solidity Patterns/ProxyDelegate.sol\":509:562  delegatecall(gas, _target, 0x0, calldatasize, 0x0, 0) */\n      delegatecall\n        /* \"Solidity Patterns/ProxyDelegate.sol\":600:614  returndatasize */\n      returndatasize\n        /* \"Solidity Patterns/ProxyDelegate.sol\":595:598  0x0 */\n      0x0\n        /* \"Solidity Patterns/ProxyDelegate.sol\":590:593  0x0 */\n      dup1\n        /* \"Solidity Patterns/ProxyDelegate.sol\":575:615  returndatacopy(0x0, 0x0, returndatasize) */\n      returndatacopy\n        /* \"Solidity Patterns/ProxyDelegate.sol\":635:641  result */\n      dup1\n        /* \"Solidity Patterns/ProxyDelegate.sol\":647:648  0 */\n      0x0\n        /* \"Solidity Patterns/ProxyDelegate.sol\":642:663  case 0 {revert(0, 0)} */\n      dup2\n      eq\n      tag_6\n      jumpi\n        /* \"Solidity Patterns/ProxyDelegate.sol\":684:698  returndatasize */\n      returndatasize\n        /* \"Solidity Patterns/ProxyDelegate.sol\":681:682  0 */\n      0x0\n        /* \"Solidity Patterns/ProxyDelegate.sol\":673:699  return (0, returndatasize) */\n      return\n        /* \"Solidity Patterns/ProxyDelegate.sol\":642:663  case 0 {revert(0, 0)} */\n    tag_6:\n        /* \"Solidity Patterns/ProxyDelegate.sol\":660:661  0 */\n      0x0\n        /* \"Solidity Patterns/ProxyDelegate.sol\":657:658  0 */\n      dup1\n        /* \"Solidity Patterns/ProxyDelegate.sol\":650:662  revert(0, 0) */\n      revert\n        /* \"Solidity Patterns/ProxyDelegate.sol\":199:343  function upgradeDelegate(address newDelegateAddress) public {... */\n    tag_2:\n      callvalue\n        /* \"--CODEGEN--\":8:17   */\n      dup1\n        /* \"--CODEGEN--\":5:7   */\n      iszero\n      tag_7\n      jumpi\n        /* \"--CODEGEN--\":30:31   */\n      0x0\n        /* \"--CODEGEN--\":27:28   */\n      dup1\n        /* \"--CODEGEN--\":20:32   */\n      revert\n        /* \"--CODEGEN--\":5:7   */\n    tag_7:\n        /* \"Solidity Patterns/ProxyDelegate.sol\":199:343  function upgradeDelegate(address newDelegateAddress) public {... */\n      pop\n      tag_8\n      0x4\n      dup1\n      calldatasize\n      sub\n      dup2\n      add\n      swap1\n      dup1\n      dup1\n      calldataload\n      0xffffffffffffffffffffffffffffffffffffffff\n      and\n      swap1\n      0x20\n      add\n      swap1\n      swap3\n      swap2\n      swap1\n      pop\n      pop\n      pop\n      jump(tag_9)\n    tag_8:\n      stop\n    tag_9:\n        /* \"Solidity Patterns/ProxyDelegate.sol\":291:296  owner */\n      0x1\n      0x0\n      swap1\n      sload\n      swap1\n      0x100\n      exp\n      swap1\n      div\n      0xffffffffffffffffffffffffffffffffffffffff\n      and\n        /* \"Solidity Patterns/ProxyDelegate.sol\":277:296  msg.sender == owner */\n      0xffffffffffffffffffffffffffffffffffffffff\n      and\n        /* \"Solidity Patterns/ProxyDelegate.sol\":277:287  msg.sender */\n      caller\n        /* \"Solidity Patterns/ProxyDelegate.sol\":277:296  msg.sender == owner */\n      0xffffffffffffffffffffffffffffffffffffffff\n      and\n      eq\n        /* \"Solidity Patterns/ProxyDelegate.sol\":269:297  require(msg.sender == owner) */\n      iszero\n      iszero\n      tag_11\n      jumpi\n      0x0\n      dup1\n      revert\n    tag_11:\n        /* \"Solidity Patterns/ProxyDelegate.sol\":318:336  newDelegateAddress */\n      dup1\n        /* \"Solidity Patterns/ProxyDelegate.sol\":307:315  delegate */\n      0x0\n      dup1\n        /* \"Solidity Patterns/ProxyDelegate.sol\":307:336  delegate = newDelegateAddress */\n      0x100\n      exp\n      dup2\n      sload\n      dup2\n      0xffffffffffffffffffffffffffffffffffffffff\n      mul\n      not\n      and\n      swap1\n      dup4\n      0xffffffffffffffffffffffffffffffffffffffff\n      and\n      mul\n      or\n      swap1\n      sstore\n      pop\n        /* \"Solidity Patterns/ProxyDelegate.sol\":199:343  function upgradeDelegate(address newDelegateAddress) public {... */\n      pop\n      jump\t// out\n\n    auxdata: 0xa165627a7a7230582095f4539cbe5ef2476b8f5d5c0af4f3f15df2dcf8af361c83259cc47cabc5f4ba0029\n}\n",
				"bytecode": {
					"linkReferences": {},
					"object": "608060405233600160006101000a81548173ffffffffffffffffffffffffffffffffffffffff021916908373ffffffffffffffffffffffffffffffffffffffff16021790555034801561005157600080fd5b50610178806100616000396000f300608060405260043610610041576000357c0100000000000000000000000000000000000000000000000000000000900463ffffffff1680632da4e75c1461006a575b6000543660008037600080366000845af43d6000803e8060008114610065573d6000f35b600080fd5b34801561007657600080fd5b506100ab600480360381019080803573ffffffffffffffffffffffffffffffffffffffff1690602001909291905050506100ad565b005b600160009054906101000a900473ffffffffffffffffffffffffffffffffffffffff1673ffffffffffffffffffffffffffffffffffffffff163373ffffffffffffffffffffffffffffffffffffffff1614151561010957600080fd5b806000806101000a81548173ffffffffffffffffffffffffffffffffffffffff021916908373ffffffffffffffffffffffffffffffffffffffff160217905550505600a165627a7a7230582095f4539cbe5ef2476b8f5d5c0af4f3f15df2dcf8af361c83259cc47cabc5f4ba0029",
					"opcodes": "PUSH1 0x80 PUSH1 0x40 MSTORE CALLER PUSH1 0x1 PUSH1 0x0 PUSH2 0x100 EXP DUP2 SLOAD DUP2 PUSH20 0xFFFFFFFFFFFFFFFFFFFFFFFFFFFFFFFFFFFFFFFF MUL NOT AND SWAP1 DUP4 PUSH20 0xFFFFFFFFFFFFFFFFFFFFFFFFFFFFFFFFFFFFFFFF AND MUL OR SWAP1 SSTORE POP CALLVALUE DUP1 ISZERO PUSH2 0x51 JUMPI PUSH1 0x0 DUP1 REVERT JUMPDEST POP PUSH2 0x178 DUP1 PUSH2 0x61 PUSH1 0x0 CODECOPY PUSH1 0x0 RETURN STOP PUSH1 0x80 PUSH1 0x40 MSTORE PUSH1 0x4 CALLDATASIZE LT PUSH2 0x41 JUMPI PUSH1 0x0 CALLDATALOAD PUSH29 0x100000000000000000000000000000000000000000000000000000000 SWAP1 DIV PUSH4 0xFFFFFFFF AND DUP1 PUSH4 0x2DA4E75C EQ PUSH2 0x6A JUMPI JUMPDEST PUSH1 0x0 SLOAD CALLDATASIZE PUSH1 0x0 DUP1 CALLDATACOPY PUSH1 0x0 DUP1 CALLDATASIZE PUSH1 0x0 DUP5 GAS DELEGATECALL RETURNDATASIZE PUSH1 0x0 DUP1 RETURNDATACOPY DUP1 PUSH1 0x0 DUP2 EQ PUSH2 0x65 JUMPI RETURNDATASIZE PUSH1 0x0 RETURN JUMPDEST PUSH1 0x0 DUP1 REVERT JUMPDEST CALLVALUE DUP1 ISZERO PUSH2 0x76 JUMPI PUSH1 0x0 DUP1 REVERT JUMPDEST POP PUSH2 0xAB PUSH1 0x4 DUP1 CALLDATASIZE SUB DUP2 ADD SWAP1 DUP1 DUP1 CALLDATALOAD PUSH20 0xFFFFFFFFFFFFFFFFFFFFFFFFFFFFFFFFFFFFFFFF AND SWAP1 PUSH1 0x20 ADD SWAP1 SWAP3 SWAP2 SWAP1 POP POP POP PUSH2 0xAD JUMP JUMPDEST STOP JUMPDEST PUSH1 0x1 PUSH1 0x0 SWAP1 SLOAD SWAP1 PUSH2 0x100 EXP SWAP1 DIV PUSH20 0xFFFFFFFFFFFFFFFFFFFFFFFFFFFFFFFFFFFFFFFF AND PUSH20 0xFFFFFFFFFFFFFFFFFFFFFFFFFFFFFFFFFFFFFFFF AND CALLER PUSH20 0xFFFFFFFFFFFFFFFFFFFFFFFFFFFFFFFFFFFFFFFF AND EQ ISZERO ISZERO PUSH2 0x109 JUMPI PUSH1 0x0 DUP1 REVERT JUMPDEST DUP1 PUSH1 0x0 DUP1 PUSH2 0x100 EXP DUP2 SLOAD DUP2 PUSH20 0xFFFFFFFFFFFFFFFFFFFFFFFFFFFFFFFFFFFFFFFF MUL NOT AND SWAP1 DUP4 PUSH20 0xFFFFFFFFFFFFFFFFFFFFFFFFFFFFFFFFFFFFFFFF AND MUL OR SWAP1 SSTORE POP POP JUMP STOP LOG1 PUSH6 0x627A7A723058 KECCAK256 SWAP6 DELEGATECALL MSTORE8 SWAP13 0xbe 0x5e CALLCODE 0x47 PUSH12 0x8F5D5C0AF4F3F15DF2DCF8AF CALLDATASIZE SHR DUP4 0x25 SWAP13 0xc4 PUSH29 0xABC5F4BA00290000000000000000000000000000000000000000000000 "
				},
				"gasEstimates": {
					"creation": {
						"codeDepositCost": "75200",
						"executionCost": "20389",
						"totalCost": "95589"
					},
					"external": {
						"": "infinite",
						"upgradeDelegate(address)": "20740"
					}
				},
				"methodIdentifiers": {
					"upgradeDelegate(address)": "2da4e75c"
				}
			},
			"userdoc": {
				"methods": {}
			}
		}
	}
}