{
	"Solidity Patterns/Guard_Check.sol": {
		"GuardCheck": {
			"abi": [
				{
					"constant": false,
					"inputs": [
						{
							"name": "addr",
							"type": "address"
						}
					],
					"name": "donate",
					"outputs": [],
					"payable": true,
					"stateMutability": "payable",
					"type": "function"
				}
			],
			"devdoc": {
				"methods": {}
			},
			"evm": {
				"assembly": "    /* \"Solidity Patterns/Guard_Check.sol\":146:730  contract GuardCheck {... */\n  mstore(0x40, 0x80)\n  callvalue\n    /* \"--CODEGEN--\":8:17   */\n  dup1\n    /* \"--CODEGEN--\":5:7   */\n  iszero\n  tag_1\n  jumpi\n    /* \"--CODEGEN--\":30:31   */\n  0x0\n    /* \"--CODEGEN--\":27:28   */\n  dup1\n    /* \"--CODEGEN--\":20:32   */\n  revert\n    /* \"--CODEGEN--\":5:7   */\ntag_1:\n    /* \"Solidity Patterns/Guard_Check.sol\":146:730  contract GuardCheck {... */\n  pop\n  dataSize(sub_0)\n  dup1\n  dataOffset(sub_0)\n  0x0\n  codecopy\n  0x0\n  return\nstop\n\nsub_0: assembly {\n        /* \"Solidity Patterns/Guard_Check.sol\":146:730  contract GuardCheck {... */\n      mstore(0x40, 0x80)\n      jumpi(tag_1, lt(calldatasize, 0x4))\n      calldataload(0x0)\n      0x100000000000000000000000000000000000000000000000000000000\n      swap1\n      div\n      0xffffffff\n      and\n      dup1\n      0x362a95\n      eq\n      tag_2\n      jumpi\n    tag_1:\n      0x0\n      dup1\n      revert\n        /* \"Solidity Patterns/Guard_Check.sol\":173:728  function donate(address addr) payable public {... */\n    tag_2:\n      tag_3\n      0x4\n      dup1\n      calldatasize\n      sub\n      dup2\n      add\n      swap1\n      dup1\n      dup1\n      calldataload\n      0xffffffffffffffffffffffffffffffffffffffff\n      and\n      swap1\n      0x20\n      add\n      swap1\n      swap3\n      swap2\n      swap1\n      pop\n      pop\n      pop\n      jump(tag_4)\n    tag_3:\n      stop\n    tag_4:\n        /* \"Solidity Patterns/Guard_Check.sol\":298:324  uint balanceBeforeTransfer */\n      0x0\n        /* \"Solidity Patterns/Guard_Check.sol\":349:368  uint transferAmount */\n      dup1\n        /* \"Solidity Patterns/Guard_Check.sol\":252:253  0 */\n      0x0\n        /* \"Solidity Patterns/Guard_Check.sol\":236:254  addr != address(0) */\n      0xffffffffffffffffffffffffffffffffffffffff\n      and\n        /* \"Solidity Patterns/Guard_Check.sol\":236:240  addr */\n      dup4\n        /* \"Solidity Patterns/Guard_Check.sol\":236:254  addr != address(0) */\n      0xffffffffffffffffffffffffffffffffffffffff\n      and\n      eq\n      iszero\n        /* \"Solidity Patterns/Guard_Check.sol\":228:255  require(addr != address(0)) */\n      iszero\n      iszero\n      tag_6\n      jumpi\n      0x0\n      dup1\n      revert\n    tag_6:\n        /* \"Solidity Patterns/Guard_Check.sol\":286:287  0 */\n      0x0\n        /* \"Solidity Patterns/Guard_Check.sol\":273:282  msg.value */\n      callvalue\n        /* \"Solidity Patterns/Guard_Check.sol\":273:287  msg.value != 0 */\n      eq\n      iszero\n        /* \"Solidity Patterns/Guard_Check.sol\":265:288  require(msg.value != 0) */\n      iszero\n      iszero\n      tag_7\n      jumpi\n      0x0\n      dup1\n      revert\n    tag_7:\n        /* \"Solidity Patterns/Guard_Check.sol\":327:331  this */\n      address\n        /* \"Solidity Patterns/Guard_Check.sol\":327:339  this.balance */\n      0xffffffffffffffffffffffffffffffffffffffff\n      and\n      balance\n        /* \"Solidity Patterns/Guard_Check.sol\":298:339  uint balanceBeforeTransfer = this.balance */\n      swap2\n      pop\n        /* \"Solidity Patterns/Guard_Check.sol\":399:400  0 */\n      0x0\n        /* \"Solidity Patterns/Guard_Check.sol\":383:387  addr */\n      dup4\n        /* \"Solidity Patterns/Guard_Check.sol\":383:395  addr.balance */\n      0xffffffffffffffffffffffffffffffffffffffff\n      and\n      balance\n        /* \"Solidity Patterns/Guard_Check.sol\":383:400  addr.balance == 0 */\n      eq\n        /* \"Solidity Patterns/Guard_Check.sol\":379:610  if (addr.balance == 0) {... */\n      iszero\n      tag_8\n      jumpi\n        /* \"Solidity Patterns/Guard_Check.sol\":433:442  msg.value */\n      callvalue\n        /* \"Solidity Patterns/Guard_Check.sol\":416:442  transferAmount = msg.value */\n      swap1\n      pop\n        /* \"Solidity Patterns/Guard_Check.sol\":379:610  if (addr.balance == 0) {... */\n      jump(tag_9)\n    tag_8:\n        /* \"Solidity Patterns/Guard_Check.sol\":478:488  msg.sender */\n      caller\n        /* \"Solidity Patterns/Guard_Check.sol\":478:496  msg.sender.balance */\n      0xffffffffffffffffffffffffffffffffffffffff\n      and\n      balance\n        /* \"Solidity Patterns/Guard_Check.sol\":463:467  addr */\n      dup4\n        /* \"Solidity Patterns/Guard_Check.sol\":463:475  addr.balance */\n      0xffffffffffffffffffffffffffffffffffffffff\n      and\n      balance\n        /* \"Solidity Patterns/Guard_Check.sol\":463:496  addr.balance < msg.sender.balance */\n      lt\n        /* \"Solidity Patterns/Guard_Check.sol\":459:610  if (addr.balance < msg.sender.balance) {... */\n      iszero\n      tag_10\n      jumpi\n        /* \"Solidity Patterns/Guard_Check.sol\":541:542  2 */\n      0x2\n        /* \"Solidity Patterns/Guard_Check.sol\":529:538  msg.value */\n      callvalue\n        /* \"Solidity Patterns/Guard_Check.sol\":529:542  msg.value / 2 */\n      dup2\n      iszero\n      iszero\n      tag_11\n      jumpi\n      invalid\n    tag_11:\n      div\n        /* \"Solidity Patterns/Guard_Check.sol\":512:542  transferAmount = msg.value / 2 */\n      swap1\n      pop\n        /* \"Solidity Patterns/Guard_Check.sol\":459:610  if (addr.balance < msg.sender.balance) {... */\n      jump(tag_12)\n    tag_10:\n        /* \"Solidity Patterns/Guard_Check.sol\":573:599  revert(\"No Longer Needed\") */\n      mload(0x40)\n      0x8c379a000000000000000000000000000000000000000000000000000000000\n      dup2\n      mstore\n      0x4\n      add\n      dup1\n      dup1\n      0x20\n      add\n      dup3\n      dup2\n      sub\n      dup3\n      mstore\n      0x10\n      dup2\n      mstore\n      0x20\n      add\n      dup1\n      0x4e6f204c6f6e676572204e656564656400000000000000000000000000000000\n      dup2\n      mstore\n      pop\n      0x20\n      add\n      swap2\n      pop\n      pop\n      mload(0x40)\n      dup1\n      swap2\n      sub\n      swap1\n      revert\n        /* \"Solidity Patterns/Guard_Check.sol\":459:610  if (addr.balance < msg.sender.balance) {... */\n    tag_12:\n        /* \"Solidity Patterns/Guard_Check.sol\":379:610  if (addr.balance == 0) {... */\n    tag_9:\n        /* \"Solidity Patterns/Guard_Check.sol\":620:624  addr */\n      dup3\n        /* \"Solidity Patterns/Guard_Check.sol\":620:633  addr.transfer */\n      0xffffffffffffffffffffffffffffffffffffffff\n      and\n        /* \"Solidity Patterns/Guard_Check.sol\":620:649  addr.transfer(transferAmount) */\n      0x8fc\n        /* \"Solidity Patterns/Guard_Check.sol\":634:648  transferAmount */\n      dup3\n        /* \"Solidity Patterns/Guard_Check.sol\":620:649  addr.transfer(transferAmount) */\n      swap1\n      dup2\n      iszero\n      mul\n      swap1\n      mload(0x40)\n      0x0\n      mload(0x40)\n      dup1\n      dup4\n      sub\n      dup2\n      dup6\n      dup9\n      dup9\n      call\n      swap4\n      pop\n      pop\n      pop\n      pop\n      iszero\n        /* \"--CODEGEN--\":8:17   */\n      dup1\n        /* \"--CODEGEN--\":5:7   */\n      iszero\n      tag_13\n      jumpi\n        /* \"--CODEGEN--\":45:61   */\n      returndatasize\n        /* \"--CODEGEN--\":42:43   */\n      0x0\n        /* \"--CODEGEN--\":39:40   */\n      dup1\n        /* \"--CODEGEN--\":24:62   */\n      returndatacopy\n        /* \"--CODEGEN--\":77:93   */\n      returndatasize\n        /* \"--CODEGEN--\":74:75   */\n      0x0\n        /* \"--CODEGEN--\":67:94   */\n      revert\n        /* \"--CODEGEN--\":5:7   */\n    tag_13:\n        /* \"Solidity Patterns/Guard_Check.sol\":620:649  addr.transfer(transferAmount) */\n      pop\n        /* \"Solidity Patterns/Guard_Check.sol\":706:720  transferAmount */\n      dup1\n        /* \"Solidity Patterns/Guard_Check.sol\":682:703  balanceBeforeTransfer */\n      dup3\n        /* \"Solidity Patterns/Guard_Check.sol\":682:720  balanceBeforeTransfer - transferAmount */\n      sub\n        /* \"Solidity Patterns/Guard_Check.sol\":666:670  this */\n      address\n        /* \"Solidity Patterns/Guard_Check.sol\":666:678  this.balance */\n      0xffffffffffffffffffffffffffffffffffffffff\n      and\n      balance\n        /* \"Solidity Patterns/Guard_Check.sol\":666:720  this.balance == balanceBeforeTransfer - transferAmount */\n      eq\n        /* \"Solidity Patterns/Guard_Check.sol\":659:721  assert(this.balance == balanceBeforeTransfer - transferAmount) */\n      iszero\n      iszero\n      tag_14\n      jumpi\n      invalid\n    tag_14:\n        /* \"Solidity Patterns/Guard_Check.sol\":173:728  function donate(address addr) payable public {... */\n      pop\n      pop\n      pop\n      jump\t// out\n\n    auxdata: 0xa165627a7a72305820fba39bd98fa13dfc9d9825de85987dbe244bdbbb469942fc73aef852f343fc5d0029\n}\n",
				"bytecode": {
					"linkReferences": {},
					"object": "608060405234801561001057600080fd5b50610261806100206000396000f300608060405260043610610040576000357c0100000000000000000000000000000000000000000000000000000000900463ffffffff168062362a9514610045575b600080fd5b610079600480360381019080803573ffffffffffffffffffffffffffffffffffffffff16906020019092919050505061007b565b005b600080600073ffffffffffffffffffffffffffffffffffffffff168373ffffffffffffffffffffffffffffffffffffffff16141515156100ba57600080fd5b600034141515156100ca57600080fd5b3073ffffffffffffffffffffffffffffffffffffffff1631915060008373ffffffffffffffffffffffffffffffffffffffff1631141561010c573490506101c5565b3373ffffffffffffffffffffffffffffffffffffffff16318373ffffffffffffffffffffffffffffffffffffffff163110156101565760023481151561014e57fe5b0490506101c4565b6040517f08c379a00000000000000000000000000000000000000000000000000000000081526004018080602001828103825260108152602001807f4e6f204c6f6e676572204e65656465640000000000000000000000000000000081525060200191505060405180910390fd5b5b8273ffffffffffffffffffffffffffffffffffffffff166108fc829081150290604051600060405180830381858888f1935050505015801561020b573d6000803e3d6000fd5b508082033073ffffffffffffffffffffffffffffffffffffffff163114151561023057fe5b5050505600a165627a7a72305820fba39bd98fa13dfc9d9825de85987dbe244bdbbb469942fc73aef852f343fc5d0029",
					"opcodes": "PUSH1 0x80 PUSH1 0x40 MSTORE CALLVALUE DUP1 ISZERO PUSH2 0x10 JUMPI PUSH1 0x0 DUP1 REVERT JUMPDEST POP PUSH2 0x261 DUP1 PUSH2 0x20 PUSH1 0x0 CODECOPY PUSH1 0x0 RETURN STOP PUSH1 0x80 PUSH1 0x40 MSTORE PUSH1 0x4 CALLDATASIZE LT PUSH2 0x40 JUMPI PUSH1 0x0 CALLDATALOAD PUSH29 0x100000000000000000000000000000000000000000000000000000000 SWAP1 DIV PUSH4 0xFFFFFFFF AND DUP1 PUSH3 0x362A95 EQ PUSH2 0x45 JUMPI JUMPDEST PUSH1 0x0 DUP1 REVERT JUMPDEST PUSH2 0x79 PUSH1 0x4 DUP1 CALLDATASIZE SUB DUP2 ADD SWAP1 DUP1 DUP1 CALLDATALOAD PUSH20 0xFFFFFFFFFFFFFFFFFFFFFFFFFFFFFFFFFFFFFFFF AND SWAP1 PUSH1 0x20 ADD SWAP1 SWAP3 SWAP2 SWAP1 POP POP POP PUSH2 0x7B JUMP JUMPDEST STOP JUMPDEST PUSH1 0x0 DUP1 PUSH1 0x0 PUSH20 0xFFFFFFFFFFFFFFFFFFFFFFFFFFFFFFFFFFFFFFFF AND DUP4 PUSH20 0xFFFFFFFFFFFFFFFFFFFFFFFFFFFFFFFFFFFFFFFF AND EQ ISZERO ISZERO ISZERO PUSH2 0xBA JUMPI PUSH1 0x0 DUP1 REVERT JUMPDEST PUSH1 0x0 CALLVALUE EQ ISZERO ISZERO ISZERO PUSH2 0xCA JUMPI PUSH1 0x0 DUP1 REVERT JUMPDEST ADDRESS PUSH20 0xFFFFFFFFFFFFFFFFFFFFFFFFFFFFFFFFFFFFFFFF AND BALANCE SWAP2 POP PUSH1 0x0 DUP4 PUSH20 0xFFFFFFFFFFFFFFFFFFFFFFFFFFFFFFFFFFFFFFFF AND BALANCE EQ ISZERO PUSH2 0x10C JUMPI CALLVALUE SWAP1 POP PUSH2 0x1C5 JUMP JUMPDEST CALLER PUSH20 0xFFFFFFFFFFFFFFFFFFFFFFFFFFFFFFFFFFFFFFFF AND BALANCE DUP4 PUSH20 0xFFFFFFFFFFFFFFFFFFFFFFFFFFFFFFFFFFFFFFFF AND BALANCE LT ISZERO PUSH2 0x156 JUMPI PUSH1 0x2 CALLVALUE DUP2 ISZERO ISZERO PUSH2 0x14E JUMPI INVALID JUMPDEST DIV SWAP1 POP PUSH2 0x1C4 JUMP JUMPDEST PUSH1 0x40 MLOAD PUSH32 0x8C379A000000000000000000000000000000000000000000000000000000000 DUP2 MSTORE PUSH1 0x4 ADD DUP1 DUP1 PUSH1 0x20 ADD DUP3 DUP2 SUB DUP3 MSTORE PUSH1 0x10 DUP2 MSTORE PUSH1 0x20 ADD DUP1 PUSH32 0x4E6F204C6F6E676572204E656564656400000000000000000000000000000000 DUP2 MSTORE POP PUSH1 0x20 ADD SWAP2 POP POP PUSH1 0x40 MLOAD DUP1 SWAP2 SUB SWAP1 REVERT JUMPDEST JUMPDEST DUP3 PUSH20 0xFFFFFFFFFFFFFFFFFFFFFFFFFFFFFFFFFFFFFFFF AND PUSH2 0x8FC DUP3 SWAP1 DUP2 ISZERO MUL SWAP1 PUSH1 0x40 MLOAD PUSH1 0x0 PUSH1 0x40 MLOAD DUP1 DUP4 SUB DUP2 DUP6 DUP9 DUP9 CALL SWAP4 POP POP POP POP ISZERO DUP1 ISZERO PUSH2 0x20B JUMPI RETURNDATASIZE PUSH1 0x0 DUP1 RETURNDATACOPY RETURNDATASIZE PUSH1 0x0 REVERT JUMPDEST POP DUP1 DUP3 SUB ADDRESS PUSH20 0xFFFFFFFFFFFFFFFFFFFFFFFFFFFFFFFFFFFFFFFF AND BALANCE EQ ISZERO ISZERO PUSH2 0x230 JUMPI INVALID JUMPDEST POP POP POP JUMP STOP LOG1 PUSH6 0x627A7A723058 KECCAK256 CREATE2 LOG3 SWAP12 0xd9 DUP16 LOG1 RETURNDATASIZE 0xfc SWAP14 SWAP9 0x25 0xde DUP6 SWAP9 PUSH30 0xBE244BDBBB469942FC73AEF852F343FC5D00290000000000000000000000 "
				},
				"gasEstimates": {
					"creation": {
						"codeDepositCost": "121800",
						"executionCost": "171",
						"totalCost": "121971"
					},
					"external": {
						"donate(address)": "infinite"
					}
				},
				"methodIdentifiers": {
					"donate(address)": "00362a95"
				}
			},
			"userdoc": {
				"methods": {}
			}
		}
	}
}