{
	"Solidity Patterns/Randomness.sol": {
		"Randomness": {
			"abi": [
				{
					"constant": false,
					"inputs": [],
					"name": "bet",
					"outputs": [],
					"payable": false,
					"stateMutability": "nonpayable",
					"type": "function"
				},
				{
					"constant": false,
					"inputs": [
						{
							"name": "_sealedSeed",
							"type": "bytes32"
						}
					],
					"name": "setSealedSeed",
					"outputs": [],
					"payable": false,
					"stateMutability": "nonpayable",
					"type": "function"
				},
				{
					"constant": false,
					"inputs": [
						{
							"name": "_seed",
							"type": "bytes32"
						}
					],
					"name": "reveal",
					"outputs": [],
					"payable": false,
					"stateMutability": "nonpayable",
					"type": "function"
				}
			],
			"devdoc": {
				"methods": {}
			},
			"evm": {
				"assembly": "    /* \"Solidity Patterns/Randomness.sol\":132:1097  contract Randomness {... */\n  mstore(0x40, 0x80)\n    /* \"Solidity Patterns/Randomness.sol\":198:203  false */\n  0x0\n    /* \"Solidity Patterns/Randomness.sol\":183:203  bool seedSet = false */\n  0x1\n  exp(0x100, 0x0)\n  dup2\n  sload\n  dup2\n  0xff\n  mul\n  not\n  and\n  swap1\n  dup4\n  iszero\n  iszero\n  mul\n  or\n  swap1\n  sstore\n  pop\n    /* \"Solidity Patterns/Randomness.sol\":227:232  false */\n  0x0\n    /* \"Solidity Patterns/Randomness.sol\":209:232  bool betsClosed = false */\n  0x1\n  dup1\n  0x100\n  exp\n  dup2\n  sload\n  dup2\n  0xff\n  mul\n  not\n  and\n  swap1\n  dup4\n  iszero\n  iszero\n  mul\n  or\n  swap1\n  sstore\n  pop\n    /* \"Solidity Patterns/Randomness.sol\":289:331  0xdCad3a6d3569DF655070DEd06cb7A1b2Ccd1D3AF */\n  0xdcad3a6d3569df655070ded06cb7a1b2ccd1d3af\n    /* \"Solidity Patterns/Randomness.sol\":266:331  address trustedParty = 0xdCad3a6d3569DF655070DEd06cb7A1b2Ccd1D3AF */\n  0x3\n  exp(0x100, 0x0)\n  dup2\n  sload\n  dup2\n  0xffffffffffffffffffffffffffffffffffffffff\n  mul\n  not\n  and\n  swap1\n  dup4\n  0xffffffffffffffffffffffffffffffffffffffff\n  and\n  mul\n  or\n  swap1\n  sstore\n  pop\n    /* \"Solidity Patterns/Randomness.sol\":132:1097  contract Randomness {... */\n  callvalue\n    /* \"--CODEGEN--\":8:17   */\n  dup1\n    /* \"--CODEGEN--\":5:7   */\n  iszero\n  tag_1\n  jumpi\n    /* \"--CODEGEN--\":30:31   */\n  0x0\n    /* \"--CODEGEN--\":27:28   */\n  dup1\n    /* \"--CODEGEN--\":20:32   */\n  revert\n    /* \"--CODEGEN--\":5:7   */\ntag_1:\n    /* \"Solidity Patterns/Randomness.sol\":132:1097  contract Randomness {... */\n  pop\n  dataSize(sub_0)\n  dup1\n  dataOffset(sub_0)\n  0x0\n  codecopy\n  0x0\n  return\nstop\n\nsub_0: assembly {\n        /* \"Solidity Patterns/Randomness.sol\":132:1097  contract Randomness {... */\n      mstore(0x40, 0x80)\n      jumpi(tag_1, lt(calldatasize, 0x4))\n      calldataload(0x0)\n      0x100000000000000000000000000000000000000000000000000000000\n      swap1\n      div\n      0xffffffff\n      and\n      dup1\n      0x11610c25\n      eq\n      tag_2\n      jumpi\n      dup1\n      0x41114538\n      eq\n      tag_3\n      jumpi\n      dup1\n      0x701fd0f1\n      eq\n      tag_4\n      jumpi\n    tag_1:\n      0x0\n      dup1\n      revert\n        /* \"Solidity Patterns/Randomness.sol\":606:691  function bet() public {... */\n    tag_2:\n      callvalue\n        /* \"--CODEGEN--\":8:17   */\n      dup1\n        /* \"--CODEGEN--\":5:7   */\n      iszero\n      tag_5\n      jumpi\n        /* \"--CODEGEN--\":30:31   */\n      0x0\n        /* \"--CODEGEN--\":27:28   */\n      dup1\n        /* \"--CODEGEN--\":20:32   */\n      revert\n        /* \"--CODEGEN--\":5:7   */\n    tag_5:\n        /* \"Solidity Patterns/Randomness.sol\":606:691  function bet() public {... */\n      pop\n      tag_6\n      jump(tag_7)\n    tag_6:\n      stop\n        /* \"Solidity Patterns/Randomness.sol\":338:600  function setSealedSeed(bytes32 _sealedSeed) public {... */\n    tag_3:\n      callvalue\n        /* \"--CODEGEN--\":8:17   */\n      dup1\n        /* \"--CODEGEN--\":5:7   */\n      iszero\n      tag_8\n      jumpi\n        /* \"--CODEGEN--\":30:31   */\n      0x0\n        /* \"--CODEGEN--\":27:28   */\n      dup1\n        /* \"--CODEGEN--\":20:32   */\n      revert\n        /* \"--CODEGEN--\":5:7   */\n    tag_8:\n        /* \"Solidity Patterns/Randomness.sol\":338:600  function setSealedSeed(bytes32 _sealedSeed) public {... */\n      pop\n      tag_9\n      0x4\n      dup1\n      calldatasize\n      sub\n      dup2\n      add\n      swap1\n      dup1\n      dup1\n      calldataload\n      not(0x0)\n      and\n      swap1\n      0x20\n      add\n      swap1\n      swap3\n      swap2\n      swap1\n      pop\n      pop\n      pop\n      jump(tag_10)\n    tag_9:\n      stop\n        /* \"Solidity Patterns/Randomness.sol\":697:1095  function reveal(bytes32 _seed) public {... */\n    tag_4:\n      callvalue\n        /* \"--CODEGEN--\":8:17   */\n      dup1\n        /* \"--CODEGEN--\":5:7   */\n      iszero\n      tag_11\n      jumpi\n        /* \"--CODEGEN--\":30:31   */\n      0x0\n        /* \"--CODEGEN--\":27:28   */\n      dup1\n        /* \"--CODEGEN--\":20:32   */\n      revert\n        /* \"--CODEGEN--\":5:7   */\n    tag_11:\n        /* \"Solidity Patterns/Randomness.sol\":697:1095  function reveal(bytes32 _seed) public {... */\n      pop\n      tag_12\n      0x4\n      dup1\n      calldatasize\n      sub\n      dup2\n      add\n      swap1\n      dup1\n      dup1\n      calldataload\n      not(0x0)\n      and\n      swap1\n      0x20\n      add\n      swap1\n      swap3\n      swap2\n      swap1\n      pop\n      pop\n      pop\n      jump(tag_13)\n    tag_12:\n      stop\n        /* \"Solidity Patterns/Randomness.sol\":606:691  function bet() public {... */\n    tag_7:\n        /* \"Solidity Patterns/Randomness.sol\":647:657  betsClosed */\n      0x1\n      dup1\n      swap1\n      sload\n      swap1\n      0x100\n      exp\n      swap1\n      div\n      0xff\n      and\n        /* \"Solidity Patterns/Randomness.sol\":646:657  !betsClosed */\n      iszero\n        /* \"Solidity Patterns/Randomness.sol\":638:658  require(!betsClosed) */\n      iszero\n      iszero\n      tag_15\n      jumpi\n      0x0\n      dup1\n      revert\n    tag_15:\n        /* \"Solidity Patterns/Randomness.sol\":606:691  function bet() public {... */\n      jump\t// out\n        /* \"Solidity Patterns/Randomness.sol\":338:600  function setSealedSeed(bytes32 _sealedSeed) public {... */\n    tag_10:\n        /* \"Solidity Patterns/Randomness.sol\":408:415  seedSet */\n      0x1\n      0x0\n      swap1\n      sload\n      swap1\n      0x100\n      exp\n      swap1\n      div\n      0xff\n      and\n        /* \"Solidity Patterns/Randomness.sol\":407:415  !seedSet */\n      iszero\n        /* \"Solidity Patterns/Randomness.sol\":399:416  require(!seedSet) */\n      iszero\n      iszero\n      tag_17\n      jumpi\n      0x0\n      dup1\n      revert\n    tag_17:\n        /* \"Solidity Patterns/Randomness.sol\":449:461  trustedParty */\n      0x3\n      0x0\n      swap1\n      sload\n      swap1\n      0x100\n      exp\n      swap1\n      div\n      0xffffffffffffffffffffffffffffffffffffffff\n      and\n        /* \"Solidity Patterns/Randomness.sol\":435:461  msg.sender == trustedParty */\n      0xffffffffffffffffffffffffffffffffffffffff\n      and\n        /* \"Solidity Patterns/Randomness.sol\":435:445  msg.sender */\n      caller\n        /* \"Solidity Patterns/Randomness.sol\":435:461  msg.sender == trustedParty */\n      0xffffffffffffffffffffffffffffffffffffffff\n      and\n      eq\n        /* \"Solidity Patterns/Randomness.sol\":426:462  require (msg.sender == trustedParty) */\n      iszero\n      iszero\n      tag_18\n      jumpi\n      0x0\n      dup1\n      revert\n    tag_18:\n        /* \"Solidity Patterns/Randomness.sol\":485:489  true */\n      0x1\n        /* \"Solidity Patterns/Randomness.sol\":472:482  betsClosed */\n      dup1\n      0x1\n        /* \"Solidity Patterns/Randomness.sol\":472:489  betsClosed = true */\n      0x100\n      exp\n      dup2\n      sload\n      dup2\n      0xff\n      mul\n      not\n      and\n      swap1\n      dup4\n      iszero\n      iszero\n      mul\n      or\n      swap1\n      sstore\n      pop\n        /* \"Solidity Patterns/Randomness.sol\":512:523  _sealedSeed */\n      dup1\n        /* \"Solidity Patterns/Randomness.sol\":499:509  sealedSeed */\n      0x0\n        /* \"Solidity Patterns/Randomness.sol\":499:523  sealedSeed = _sealedSeed */\n      dup2\n      not(0x0)\n      and\n      swap1\n      sstore\n      pop\n        /* \"Solidity Patterns/Randomness.sol\":568:569  1 */\n      0x1\n        /* \"Solidity Patterns/Randomness.sol\":553:565  block.number */\n      number\n        /* \"Solidity Patterns/Randomness.sol\":553:569  block.number + 1 */\n      add\n        /* \"Solidity Patterns/Randomness.sol\":533:550  storedBlockNumber */\n      0x2\n        /* \"Solidity Patterns/Randomness.sol\":533:569  storedBlockNumber = block.number + 1 */\n      dup2\n      swap1\n      sstore\n      pop\n        /* \"Solidity Patterns/Randomness.sol\":589:593  true */\n      0x1\n        /* \"Solidity Patterns/Randomness.sol\":579:586  seedSet */\n      dup1\n      0x0\n        /* \"Solidity Patterns/Randomness.sol\":579:593  seedSet = true */\n      0x100\n      exp\n      dup2\n      sload\n      dup2\n      0xff\n      mul\n      not\n      and\n      swap1\n      dup4\n      iszero\n      iszero\n      mul\n      or\n      swap1\n      sstore\n      pop\n        /* \"Solidity Patterns/Randomness.sol\":338:600  function setSealedSeed(bytes32 _sealedSeed) public {... */\n      pop\n      jump\t// out\n        /* \"Solidity Patterns/Randomness.sol\":697:1095  function reveal(bytes32 _seed) public {... */\n    tag_13:\n        /* \"Solidity Patterns/Randomness.sol\":912:923  uint random */\n      0x0\n        /* \"Solidity Patterns/Randomness.sol\":753:760  seedSet */\n      0x1\n      0x0\n      swap1\n      sload\n      swap1\n      0x100\n      exp\n      swap1\n      div\n      0xff\n      and\n        /* \"Solidity Patterns/Randomness.sol\":745:761  require(seedSet) */\n      iszero\n      iszero\n      tag_20\n      jumpi\n      0x0\n      dup1\n      revert\n    tag_20:\n        /* \"Solidity Patterns/Randomness.sol\":779:789  betsClosed */\n      0x1\n      dup1\n      swap1\n      sload\n      swap1\n      0x100\n      exp\n      swap1\n      div\n      0xff\n      and\n        /* \"Solidity Patterns/Randomness.sol\":771:790  require(betsClosed) */\n      iszero\n      iszero\n      tag_21\n      jumpi\n      0x0\n      dup1\n      revert\n    tag_21:\n        /* \"Solidity Patterns/Randomness.sol\":828:840  block.number */\n      number\n        /* \"Solidity Patterns/Randomness.sol\":808:825  storedBlockNumber */\n      sload(0x2)\n        /* \"Solidity Patterns/Randomness.sol\":808:840  storedBlockNumber < block.number */\n      lt\n        /* \"Solidity Patterns/Randomness.sol\":800:841  require(storedBlockNumber < block.number) */\n      iszero\n      iszero\n      tag_22\n      jumpi\n      0x0\n      dup1\n      revert\n    tag_22:\n        /* \"Solidity Patterns/Randomness.sol\":891:901  sealedSeed */\n      sload(0x0)\n        /* \"Solidity Patterns/Randomness.sol\":859:901  keccak256(msg.sender, _seed) == sealedSeed */\n      not(0x0)\n      and\n        /* \"Solidity Patterns/Randomness.sol\":869:879  msg.sender */\n      caller\n        /* \"Solidity Patterns/Randomness.sol\":881:886  _seed */\n      dup4\n        /* \"Solidity Patterns/Randomness.sol\":859:887  keccak256(msg.sender, _seed) */\n      mload(0x40)\n      dup1\n      dup4\n      0xffffffffffffffffffffffffffffffffffffffff\n      and\n      0xffffffffffffffffffffffffffffffffffffffff\n      and\n      0x1000000000000000000000000\n      mul\n      dup2\n      mstore\n      0x14\n      add\n      dup3\n      not(0x0)\n      and\n      not(0x0)\n      and\n      dup2\n      mstore\n      0x20\n      add\n      swap3\n      pop\n      pop\n      pop\n      mload(0x40)\n      dup1\n      swap2\n      sub\n      swap1\n      keccak256\n        /* \"Solidity Patterns/Randomness.sol\":859:901  keccak256(msg.sender, _seed) == sealedSeed */\n      not(0x0)\n      and\n      eq\n        /* \"Solidity Patterns/Randomness.sol\":851:902  require(keccak256(msg.sender, _seed) == sealedSeed) */\n      iszero\n      iszero\n      tag_23\n      jumpi\n      0x0\n      dup1\n      revert\n    tag_23:\n        /* \"Solidity Patterns/Randomness.sol\":941:946  _seed */\n      dup2\n        /* \"Solidity Patterns/Randomness.sol\":958:975  storedBlockNumber */\n      sload(0x2)\n        /* \"Solidity Patterns/Randomness.sol\":948:976  blockhash(storedBlockNumber) */\n      blockhash\n        /* \"Solidity Patterns/Randomness.sol\":931:977  keccak256(_seed, blockhash(storedBlockNumber)) */\n      mload(0x40)\n      dup1\n      dup4\n      not(0x0)\n      and\n      not(0x0)\n      and\n      dup2\n      mstore\n      0x20\n      add\n      dup3\n      not(0x0)\n      and\n      not(0x0)\n      and\n      dup2\n      mstore\n      0x20\n      add\n      swap3\n      pop\n      pop\n      pop\n      mload(0x40)\n      dup1\n      swap2\n      sub\n      swap1\n      keccak256\n        /* \"Solidity Patterns/Randomness.sol\":926:978  uint(keccak256(_seed, blockhash(storedBlockNumber))) */\n      0x1\n      swap1\n      div\n        /* \"Solidity Patterns/Randomness.sol\":912:978  uint random = uint(keccak256(_seed, blockhash(storedBlockNumber))) */\n      swap1\n      pop\n        /* \"Solidity Patterns/Randomness.sol\":1055:1060  false */\n      0x0\n        /* \"Solidity Patterns/Randomness.sol\":1045:1052  seedSet */\n      0x1\n      0x0\n        /* \"Solidity Patterns/Randomness.sol\":1045:1060  seedSet = false */\n      0x100\n      exp\n      dup2\n      sload\n      dup2\n      0xff\n      mul\n      not\n      and\n      swap1\n      dup4\n      iszero\n      iszero\n      mul\n      or\n      swap1\n      sstore\n      pop\n        /* \"Solidity Patterns/Randomness.sol\":1083:1088  false */\n      0x0\n        /* \"Solidity Patterns/Randomness.sol\":1070:1080  betsClosed */\n      0x1\n      dup1\n        /* \"Solidity Patterns/Randomness.sol\":1070:1088  betsClosed = false */\n      0x100\n      exp\n      dup2\n      sload\n      dup2\n      0xff\n      mul\n      not\n      and\n      swap1\n      dup4\n      iszero\n      iszero\n      mul\n      or\n      swap1\n      sstore\n      pop\n        /* \"Solidity Patterns/Randomness.sol\":697:1095  function reveal(bytes32 _seed) public {... */\n      pop\n      pop\n      jump\t// out\n\n    auxdata: 0xa165627a7a723058200069d8ea614ef775fb5af5ea94ca9e36b3b65cb2797667fdd8e596845641ac510029\n}\n",
				"bytecode": {
					"linkReferences": {},
					"object": "60806040526000600160006101000a81548160ff02191690831515021790555060006001806101000a81548160ff02191690831515021790555073dcad3a6d3569df655070ded06cb7a1b2ccd1d3af600360006101000a81548173ffffffffffffffffffffffffffffffffffffffff021916908373ffffffffffffffffffffffffffffffffffffffff16021790555034801561009a57600080fd5b50610311806100aa6000396000f300608060405260043610610057576000357c0100000000000000000000000000000000000000000000000000000000900463ffffffff16806311610c251461005c5780634111453814610073578063701fd0f1146100a4575b600080fd5b34801561006857600080fd5b506100716100d5565b005b34801561007f57600080fd5b506100a260048036038101908080356000191690602001909291905050506100f2565b005b3480156100b057600080fd5b506100d360048036038101908080356000191690602001909291905050506101b6565b005b6001809054906101000a900460ff161515156100f057600080fd5b565b600160009054906101000a900460ff1615151561010e57600080fd5b600360009054906101000a900473ffffffffffffffffffffffffffffffffffffffff1673ffffffffffffffffffffffffffffffffffffffff163373ffffffffffffffffffffffffffffffffffffffff1614151561016a57600080fd5b60018060016101000a81548160ff02191690831515021790555080600081600019169055506001430160028190555060018060006101000a81548160ff02191690831515021790555050565b6000600160009054906101000a900460ff1615156101d357600080fd5b6001809054906101000a900460ff1615156101ed57600080fd5b436002541015156101fd57600080fd5b600054600019163383604051808373ffffffffffffffffffffffffffffffffffffffff1673ffffffffffffffffffffffffffffffffffffffff166c0100000000000000000000000002815260140182600019166000191681526020019250505060405180910390206000191614151561027557600080fd5b816002544060405180836000191660001916815260200182600019166000191681526020019250505060405180910390206001900490506000600160006101000a81548160ff02191690831515021790555060006001806101000a81548160ff02191690831515021790555050505600a165627a7a723058200069d8ea614ef775fb5af5ea94ca9e36b3b65cb2797667fdd8e596845641ac510029",
					"opcodes": "PUSH1 0x80 PUSH1 0x40 MSTORE PUSH1 0x0 PUSH1 0x1 PUSH1 0x0 PUSH2 0x100 EXP DUP2 SLOAD DUP2 PUSH1 0xFF MUL NOT AND SWAP1 DUP4 ISZERO ISZERO MUL OR SWAP1 SSTORE POP PUSH1 0x0 PUSH1 0x1 DUP1 PUSH2 0x100 EXP DUP2 SLOAD DUP2 PUSH1 0xFF MUL NOT AND SWAP1 DUP4 ISZERO ISZERO MUL OR SWAP1 SSTORE POP PUSH20 0xDCAD3A6D3569DF655070DED06CB7A1B2CCD1D3AF PUSH1 0x3 PUSH1 0x0 PUSH2 0x100 EXP DUP2 SLOAD DUP2 PUSH20 0xFFFFFFFFFFFFFFFFFFFFFFFFFFFFFFFFFFFFFFFF MUL NOT AND SWAP1 DUP4 PUSH20 0xFFFFFFFFFFFFFFFFFFFFFFFFFFFFFFFFFFFFFFFF AND MUL OR SWAP1 SSTORE POP CALLVALUE DUP1 ISZERO PUSH2 0x9A JUMPI PUSH1 0x0 DUP1 REVERT JUMPDEST POP PUSH2 0x311 DUP1 PUSH2 0xAA PUSH1 0x0 CODECOPY PUSH1 0x0 RETURN STOP PUSH1 0x80 PUSH1 0x40 MSTORE PUSH1 0x4 CALLDATASIZE LT PUSH2 0x57 JUMPI PUSH1 0x0 CALLDATALOAD PUSH29 0x100000000000000000000000000000000000000000000000000000000 SWAP1 DIV PUSH4 0xFFFFFFFF AND DUP1 PUSH4 0x11610C25 EQ PUSH2 0x5C JUMPI DUP1 PUSH4 0x41114538 EQ PUSH2 0x73 JUMPI DUP1 PUSH4 0x701FD0F1 EQ PUSH2 0xA4 JUMPI JUMPDEST PUSH1 0x0 DUP1 REVERT JUMPDEST CALLVALUE DUP1 ISZERO PUSH2 0x68 JUMPI PUSH1 0x0 DUP1 REVERT JUMPDEST POP PUSH2 0x71 PUSH2 0xD5 JUMP JUMPDEST STOP JUMPDEST CALLVALUE DUP1 ISZERO PUSH2 0x7F JUMPI PUSH1 0x0 DUP1 REVERT JUMPDEST POP PUSH2 0xA2 PUSH1 0x4 DUP1 CALLDATASIZE SUB DUP2 ADD SWAP1 DUP1 DUP1 CALLDATALOAD PUSH1 0x0 NOT AND SWAP1 PUSH1 0x20 ADD SWAP1 SWAP3 SWAP2 SWAP1 POP POP POP PUSH2 0xF2 JUMP JUMPDEST STOP JUMPDEST CALLVALUE DUP1 ISZERO PUSH2 0xB0 JUMPI PUSH1 0x0 DUP1 REVERT JUMPDEST POP PUSH2 0xD3 PUSH1 0x4 DUP1 CALLDATASIZE SUB DUP2 ADD SWAP1 DUP1 DUP1 CALLDATALOAD PUSH1 0x0 NOT AND SWAP1 PUSH1 0x20 ADD SWAP1 SWAP3 SWAP2 SWAP1 POP POP POP PUSH2 0x1B6 JUMP JUMPDEST STOP JUMPDEST PUSH1 0x1 DUP1 SWAP1 SLOAD SWAP1 PUSH2 0x100 EXP SWAP1 DIV PUSH1 0xFF AND ISZERO ISZERO ISZERO PUSH2 0xF0 JUMPI PUSH1 0x0 DUP1 REVERT JUMPDEST JUMP JUMPDEST PUSH1 0x1 PUSH1 0x0 SWAP1 SLOAD SWAP1 PUSH2 0x100 EXP SWAP1 DIV PUSH1 0xFF AND ISZERO ISZERO ISZERO PUSH2 0x10E JUMPI PUSH1 0x0 DUP1 REVERT JUMPDEST PUSH1 0x3 PUSH1 0x0 SWAP1 SLOAD SWAP1 PUSH2 0x100 EXP SWAP1 DIV PUSH20 0xFFFFFFFFFFFFFFFFFFFFFFFFFFFFFFFFFFFFFFFF AND PUSH20 0xFFFFFFFFFFFFFFFFFFFFFFFFFFFFFFFFFFFFFFFF AND CALLER PUSH20 0xFFFFFFFFFFFFFFFFFFFFFFFFFFFFFFFFFFFFFFFF AND EQ ISZERO ISZERO PUSH2 0x16A JUMPI PUSH1 0x0 DUP1 REVERT JUMPDEST PUSH1 0x1 DUP1 PUSH1 0x1 PUSH2 0x100 EXP DUP2 SLOAD DUP2 PUSH1 0xFF MUL NOT AND SWAP1 DUP4 ISZERO ISZERO MUL OR SWAP1 SSTORE POP DUP1 PUSH1 0x0 DUP2 PUSH1 0x0 NOT AND SWAP1 SSTORE POP PUSH1 0x1 NUMBER ADD PUSH1 0x2 DUP2 SWAP1 SSTORE POP PUSH1 0x1 DUP1 PUSH1 0x0 PUSH2 0x100 EXP DUP2 SLOAD DUP2 PUSH1 0xFF MUL NOT AND SWAP1 DUP4 ISZERO ISZERO MUL OR SWAP1 SSTORE POP POP JUMP JUMPDEST PUSH1 0x0 PUSH1 0x1 PUSH1 0x0 SWAP1 SLOAD SWAP1 PUSH2 0x100 EXP SWAP1 DIV PUSH1 0xFF AND ISZERO ISZERO PUSH2 0x1D3 JUMPI PUSH1 0x0 DUP1 REVERT JUMPDEST PUSH1 0x1 DUP1 SWAP1 SLOAD SWAP1 PUSH2 0x100 EXP SWAP1 DIV PUSH1 0xFF AND ISZERO ISZERO PUSH2 0x1ED JUMPI PUSH1 0x0 DUP1 REVERT JUMPDEST NUMBER PUSH1 0x2 SLOAD LT ISZERO ISZERO PUSH2 0x1FD JUMPI PUSH1 0x0 DUP1 REVERT JUMPDEST PUSH1 0x0 SLOAD PUSH1 0x0 NOT AND CALLER DUP4 PUSH1 0x40 MLOAD DUP1 DUP4 PUSH20 0xFFFFFFFFFFFFFFFFFFFFFFFFFFFFFFFFFFFFFFFF AND PUSH20 0xFFFFFFFFFFFFFFFFFFFFFFFFFFFFFFFFFFFFFFFF AND PUSH13 0x1000000000000000000000000 MUL DUP2 MSTORE PUSH1 0x14 ADD DUP3 PUSH1 0x0 NOT AND PUSH1 0x0 NOT AND DUP2 MSTORE PUSH1 0x20 ADD SWAP3 POP POP POP PUSH1 0x40 MLOAD DUP1 SWAP2 SUB SWAP1 KECCAK256 PUSH1 0x0 NOT AND EQ ISZERO ISZERO PUSH2 0x275 JUMPI PUSH1 0x0 DUP1 REVERT JUMPDEST DUP2 PUSH1 0x2 SLOAD BLOCKHASH PUSH1 0x40 MLOAD DUP1 DUP4 PUSH1 0x0 NOT AND PUSH1 0x0 NOT AND DUP2 MSTORE PUSH1 0x20 ADD DUP3 PUSH1 0x0 NOT AND PUSH1 0x0 NOT AND DUP2 MSTORE PUSH1 0x20 ADD SWAP3 POP POP POP PUSH1 0x40 MLOAD DUP1 SWAP2 SUB SWAP1 KECCAK256 PUSH1 0x1 SWAP1 DIV SWAP1 POP PUSH1 0x0 PUSH1 0x1 PUSH1 0x0 PUSH2 0x100 EXP DUP2 SLOAD DUP2 PUSH1 0xFF MUL NOT AND SWAP1 DUP4 ISZERO ISZERO MUL OR SWAP1 SSTORE POP PUSH1 0x0 PUSH1 0x1 DUP1 PUSH2 0x100 EXP DUP2 SLOAD DUP2 PUSH1 0xFF MUL NOT AND SWAP1 DUP4 ISZERO ISZERO MUL OR SWAP1 SSTORE POP POP POP JUMP STOP LOG1 PUSH6 0x627A7A723058 KECCAK256 STOP PUSH10 0xD8EA614EF775FB5AF5EA SWAP5 0xca SWAP15 CALLDATASIZE 0xb3 0xb6 0x5c 0xb2 PUSH26 0x7667FDD8E596845641AC51002900000000000000000000000000 "
				},
				"gasEstimates": {
					"creation": {
						"codeDepositCost": "157000",
						"executionCost": "61053",
						"totalCost": "218053"
					},
					"external": {
						"bet()": "445",
						"reveal(bytes32)": "42419",
						"setSealedSeed(bytes32)": "81386"
					}
				},
				"methodIdentifiers": {
					"bet()": "11610c25",
					"reveal(bytes32)": "701fd0f1",
					"setSealedSeed(bytes32)": "41114538"
				}
			},
			"userdoc": {
				"methods": {}
			}
		}
	}
}