{
	"Solidity Patterns/State_Machine.sol": {
		"StateMachine": {
			"abi": [
				{
					"constant": false,
					"inputs": [],
					"name": "bid",
					"outputs": [],
					"payable": true,
					"stateMutability": "payable",
					"type": "function"
				},
				{
					"constant": false,
					"inputs": [],
					"name": "cleanup",
					"outputs": [],
					"payable": false,
					"stateMutability": "nonpayable",
					"type": "function"
				},
				{
					"constant": false,
					"inputs": [],
					"name": "reveal",
					"outputs": [],
					"payable": false,
					"stateMutability": "nonpayable",
					"type": "function"
				},
				{
					"constant": true,
					"inputs": [],
					"name": "stage",
					"outputs": [
						{
							"name": "",
							"type": "uint8"
						}
					],
					"payable": false,
					"stateMutability": "view",
					"type": "function"
				},
				{
					"constant": true,
					"inputs": [],
					"name": "creationTime",
					"outputs": [
						{
							"name": "",
							"type": "uint256"
						}
					],
					"payable": false,
					"stateMutability": "view",
					"type": "function"
				},
				{
					"constant": false,
					"inputs": [],
					"name": "claimGoods",
					"outputs": [],
					"payable": false,
					"stateMutability": "nonpayable",
					"type": "function"
				}
			],
			"devdoc": {
				"methods": {}
			},
			"evm": {
				"assembly": "    /* \"Solidity Patterns/State_Machine.sol\":131:1400  contract StateMachine {... */\n  mstore(0x40, 0x80)\n    /* \"Solidity Patterns/State_Machine.sol\":298:323  Stages.AcceptingBlindBids */\n  0x0\n    /* \"Solidity Patterns/State_Machine.sol\":276:323  Stages public stage = Stages.AcceptingBlindBids */\n  dup1\n  exp(0x100, 0x0)\n  dup2\n  sload\n  dup2\n  0xff\n  mul\n  not\n  and\n  swap1\n  dup4\n  0x3\n  dup2\n  gt\n  iszero\n  tag_1\n  jumpi\n  invalid\ntag_1:\n  mul\n  or\n  swap1\n  sstore\n  pop\n    /* \"Solidity Patterns/State_Machine.sol\":357:360  now */\n  timestamp\n    /* \"Solidity Patterns/State_Machine.sol\":330:360  uint public creationTime = now */\n  0x1\n  sstore\n    /* \"Solidity Patterns/State_Machine.sol\":131:1400  contract StateMachine {... */\n  callvalue\n    /* \"--CODEGEN--\":8:17   */\n  dup1\n    /* \"--CODEGEN--\":5:7   */\n  iszero\n  tag_2\n  jumpi\n    /* \"--CODEGEN--\":30:31   */\n  0x0\n    /* \"--CODEGEN--\":27:28   */\n  dup1\n    /* \"--CODEGEN--\":20:32   */\n  revert\n    /* \"--CODEGEN--\":5:7   */\ntag_2:\n    /* \"Solidity Patterns/State_Machine.sol\":131:1400  contract StateMachine {... */\n  pop\n  dataSize(sub_0)\n  dup1\n  dataOffset(sub_0)\n  0x0\n  codecopy\n  0x0\n  return\nstop\n\nsub_0: assembly {\n        /* \"Solidity Patterns/State_Machine.sol\":131:1400  contract StateMachine {... */\n      mstore(0x40, 0x80)\n      jumpi(tag_1, lt(calldatasize, 0x4))\n      calldataload(0x0)\n      0x100000000000000000000000000000000000000000000000000000000\n      swap1\n      div\n      0xffffffff\n      and\n      dup1\n      0x1998aeef\n      eq\n      tag_2\n      jumpi\n      dup1\n      0x3cecd719\n      eq\n      tag_3\n      jumpi\n      dup1\n      0xa475b5dd\n      eq\n      tag_4\n      jumpi\n      dup1\n      0xc040e6b8\n      eq\n      tag_5\n      jumpi\n      dup1\n      0xd8270dce\n      eq\n      tag_6\n      jumpi\n      dup1\n      0xec29b405\n      eq\n      tag_7\n      jumpi\n    tag_1:\n      0x0\n      dup1\n      revert\n        /* \"Solidity Patterns/State_Machine.sol\":808:930  function bid() public payable timedTransitions atStage(Stages.AcceptingBlindBids) {... */\n    tag_2:\n      tag_8\n      jump(tag_9)\n    tag_8:\n      stop\n        /* \"Solidity Patterns/State_Machine.sol\":1211:1314  function cleanup() public atStage(Stages.Finished) {... */\n    tag_3:\n      callvalue\n        /* \"--CODEGEN--\":8:17   */\n      dup1\n        /* \"--CODEGEN--\":5:7   */\n      iszero\n      tag_10\n      jumpi\n        /* \"--CODEGEN--\":30:31   */\n      0x0\n        /* \"--CODEGEN--\":27:28   */\n      dup1\n        /* \"--CODEGEN--\":20:32   */\n      revert\n        /* \"--CODEGEN--\":5:7   */\n    tag_10:\n        /* \"Solidity Patterns/State_Machine.sol\":1211:1314  function cleanup() public atStage(Stages.Finished) {... */\n      pop\n      tag_11\n      jump(tag_12)\n    tag_11:\n      stop\n        /* \"Solidity Patterns/State_Machine.sol\":936:1053  function reveal() public timedTransitions atStage(Stages.RevealBids) {... */\n    tag_4:\n      callvalue\n        /* \"--CODEGEN--\":8:17   */\n      dup1\n        /* \"--CODEGEN--\":5:7   */\n      iszero\n      tag_13\n      jumpi\n        /* \"--CODEGEN--\":30:31   */\n      0x0\n        /* \"--CODEGEN--\":27:28   */\n      dup1\n        /* \"--CODEGEN--\":20:32   */\n      revert\n        /* \"--CODEGEN--\":5:7   */\n    tag_13:\n        /* \"Solidity Patterns/State_Machine.sol\":936:1053  function reveal() public timedTransitions atStage(Stages.RevealBids) {... */\n      pop\n      tag_14\n      jump(tag_15)\n    tag_14:\n      stop\n        /* \"Solidity Patterns/State_Machine.sol\":276:323  Stages public stage = Stages.AcceptingBlindBids */\n    tag_5:\n      callvalue\n        /* \"--CODEGEN--\":8:17   */\n      dup1\n        /* \"--CODEGEN--\":5:7   */\n      iszero\n      tag_16\n      jumpi\n        /* \"--CODEGEN--\":30:31   */\n      0x0\n        /* \"--CODEGEN--\":27:28   */\n      dup1\n        /* \"--CODEGEN--\":20:32   */\n      revert\n        /* \"--CODEGEN--\":5:7   */\n    tag_16:\n        /* \"Solidity Patterns/State_Machine.sol\":276:323  Stages public stage = Stages.AcceptingBlindBids */\n      pop\n      tag_17\n      jump(tag_18)\n    tag_17:\n      mload(0x40)\n      dup1\n      dup3\n      0x3\n      dup2\n      gt\n      iszero\n      tag_19\n      jumpi\n      invalid\n    tag_19:\n      0xff\n      and\n      dup2\n      mstore\n      0x20\n      add\n      swap2\n      pop\n      pop\n      mload(0x40)\n      dup1\n      swap2\n      sub\n      swap1\n      return\n        /* \"Solidity Patterns/State_Machine.sol\":330:360  uint public creationTime = now */\n    tag_6:\n      callvalue\n        /* \"--CODEGEN--\":8:17   */\n      dup1\n        /* \"--CODEGEN--\":5:7   */\n      iszero\n      tag_20\n      jumpi\n        /* \"--CODEGEN--\":30:31   */\n      0x0\n        /* \"--CODEGEN--\":27:28   */\n      dup1\n        /* \"--CODEGEN--\":20:32   */\n      revert\n        /* \"--CODEGEN--\":5:7   */\n    tag_20:\n        /* \"Solidity Patterns/State_Machine.sol\":330:360  uint public creationTime = now */\n      pop\n      tag_21\n      jump(tag_22)\n    tag_21:\n      mload(0x40)\n      dup1\n      dup3\n      dup2\n      mstore\n      0x20\n      add\n      swap2\n      pop\n      pop\n      mload(0x40)\n      dup1\n      swap2\n      sub\n      swap1\n      return\n        /* \"Solidity Patterns/State_Machine.sol\":1059:1205  function claimGoods() public timedTransitions atStage(Stages.WinnerDetermined) transitionAfter {... */\n    tag_7:\n      callvalue\n        /* \"--CODEGEN--\":8:17   */\n      dup1\n        /* \"--CODEGEN--\":5:7   */\n      iszero\n      tag_23\n      jumpi\n        /* \"--CODEGEN--\":30:31   */\n      0x0\n        /* \"--CODEGEN--\":27:28   */\n      dup1\n        /* \"--CODEGEN--\":20:32   */\n      revert\n        /* \"--CODEGEN--\":5:7   */\n    tag_23:\n        /* \"Solidity Patterns/State_Machine.sol\":1059:1205  function claimGoods() public timedTransitions atStage(Stages.WinnerDetermined) transitionAfter {... */\n      pop\n      tag_24\n      jump(tag_25)\n    tag_24:\n      stop\n        /* \"Solidity Patterns/State_Machine.sol\":808:930  function bid() public payable timedTransitions atStage(Stages.AcceptingBlindBids) {... */\n    tag_9:\n        /* \"Solidity Patterns/State_Machine.sol\":580:605  Stages.AcceptingBlindBids */\n      0x0\n        /* \"Solidity Patterns/State_Machine.sol\":571:605  stage == Stages.AcceptingBlindBids */\n      0x3\n      dup2\n      gt\n      iszero\n      tag_27\n      jumpi\n      invalid\n    tag_27:\n        /* \"Solidity Patterns/State_Machine.sol\":571:576  stage */\n      0x0\n      dup1\n      swap1\n      sload\n      swap1\n      0x100\n      exp\n      swap1\n      div\n      0xff\n      and\n        /* \"Solidity Patterns/State_Machine.sol\":571:605  stage == Stages.AcceptingBlindBids */\n      0x3\n      dup2\n      gt\n      iszero\n      tag_28\n      jumpi\n      invalid\n    tag_28:\n      eq\n        /* \"Solidity Patterns/State_Machine.sol\":571:637  stage == Stages.AcceptingBlindBids && now >= creationTime + 6 days */\n      dup1\n      iszero\n      tag_29\n      jumpi\n      pop\n        /* \"Solidity Patterns/State_Machine.sol\":631:637  6 days */\n      0x7e900\n        /* \"Solidity Patterns/State_Machine.sol\":616:628  creationTime */\n      sload(0x1)\n        /* \"Solidity Patterns/State_Machine.sol\":616:637  creationTime + 6 days */\n      add\n        /* \"Solidity Patterns/State_Machine.sol\":609:612  now */\n      timestamp\n        /* \"Solidity Patterns/State_Machine.sol\":609:637  now >= creationTime + 6 days */\n      lt\n      iszero\n        /* \"Solidity Patterns/State_Machine.sol\":571:637  stage == Stages.AcceptingBlindBids && now >= creationTime + 6 days */\n    tag_29:\n        /* \"Solidity Patterns/State_Machine.sol\":567:675  if (stage == Stages.AcceptingBlindBids && now >= creationTime + 6 days) {... */\n      iszero\n      tag_30\n      jumpi\n        /* \"Solidity Patterns/State_Machine.sol\":653:664  nextStage() */\n      tag_31\n        /* \"Solidity Patterns/State_Machine.sol\":653:662  nextStage */\n      tag_32\n        /* \"Solidity Patterns/State_Machine.sol\":653:664  nextStage() */\n      jump\t// in\n    tag_31:\n        /* \"Solidity Patterns/State_Machine.sol\":567:675  if (stage == Stages.AcceptingBlindBids && now >= creationTime + 6 days) {... */\n    tag_30:\n        /* \"Solidity Patterns/State_Machine.sol\":697:714  Stages.RevealBids */\n      0x1\n        /* \"Solidity Patterns/State_Machine.sol\":688:714  stage == Stages.RevealBids */\n      0x3\n      dup2\n      gt\n      iszero\n      tag_33\n      jumpi\n      invalid\n    tag_33:\n        /* \"Solidity Patterns/State_Machine.sol\":688:693  stage */\n      0x0\n      dup1\n      swap1\n      sload\n      swap1\n      0x100\n      exp\n      swap1\n      div\n      0xff\n      and\n        /* \"Solidity Patterns/State_Machine.sol\":688:714  stage == Stages.RevealBids */\n      0x3\n      dup2\n      gt\n      iszero\n      tag_34\n      jumpi\n      invalid\n    tag_34:\n      eq\n        /* \"Solidity Patterns/State_Machine.sol\":688:747  stage == Stages.RevealBids && now >= creationTime + 10 days */\n      dup1\n      iszero\n      tag_35\n      jumpi\n      pop\n        /* \"Solidity Patterns/State_Machine.sol\":740:747  10 days */\n      0xd2f00\n        /* \"Solidity Patterns/State_Machine.sol\":725:737  creationTime */\n      sload(0x1)\n        /* \"Solidity Patterns/State_Machine.sol\":725:747  creationTime + 10 days */\n      add\n        /* \"Solidity Patterns/State_Machine.sol\":718:721  now */\n      timestamp\n        /* \"Solidity Patterns/State_Machine.sol\":718:747  now >= creationTime + 10 days */\n      lt\n      iszero\n        /* \"Solidity Patterns/State_Machine.sol\":688:747  stage == Stages.RevealBids && now >= creationTime + 10 days */\n    tag_35:\n        /* \"Solidity Patterns/State_Machine.sol\":684:785  if (stage == Stages.RevealBids && now >= creationTime + 10 days) {... */\n      iszero\n      tag_36\n      jumpi\n        /* \"Solidity Patterns/State_Machine.sol\":763:774  nextStage() */\n      tag_37\n        /* \"Solidity Patterns/State_Machine.sol\":763:772  nextStage */\n      tag_32\n        /* \"Solidity Patterns/State_Machine.sol\":763:774  nextStage() */\n      jump\t// in\n    tag_37:\n        /* \"Solidity Patterns/State_Machine.sol\":684:785  if (stage == Stages.RevealBids && now >= creationTime + 10 days) {... */\n    tag_36:\n        /* \"Solidity Patterns/State_Machine.sol\":863:888  Stages.AcceptingBlindBids */\n      0x0\n        /* \"Solidity Patterns/State_Machine.sol\":426:432  _stage */\n      dup1\n        /* \"Solidity Patterns/State_Machine.sol\":417:432  stage == _stage */\n      0x3\n      dup2\n      gt\n      iszero\n      tag_39\n      jumpi\n      invalid\n    tag_39:\n        /* \"Solidity Patterns/State_Machine.sol\":417:422  stage */\n      0x0\n      dup1\n      swap1\n      sload\n      swap1\n      0x100\n      exp\n      swap1\n      div\n      0xff\n      and\n        /* \"Solidity Patterns/State_Machine.sol\":417:432  stage == _stage */\n      0x3\n      dup2\n      gt\n      iszero\n      tag_40\n      jumpi\n      invalid\n    tag_40:\n      eq\n        /* \"Solidity Patterns/State_Machine.sol\":409:433  require(stage == _stage) */\n      iszero\n      iszero\n      tag_41\n      jumpi\n      0x0\n      dup1\n      revert\n    tag_41:\n        /* \"Solidity Patterns/State_Machine.sol\":794:795  _ */\n      pop\n        /* \"Solidity Patterns/State_Machine.sol\":808:930  function bid() public payable timedTransitions atStage(Stages.AcceptingBlindBids) {... */\n      jump\t// out\n        /* \"Solidity Patterns/State_Machine.sol\":1211:1314  function cleanup() public atStage(Stages.Finished) {... */\n    tag_12:\n        /* \"Solidity Patterns/State_Machine.sol\":1245:1260  Stages.Finished */\n      0x3\n        /* \"Solidity Patterns/State_Machine.sol\":426:432  _stage */\n      dup1\n        /* \"Solidity Patterns/State_Machine.sol\":417:432  stage == _stage */\n      0x3\n      dup2\n      gt\n      iszero\n      tag_44\n      jumpi\n      invalid\n    tag_44:\n        /* \"Solidity Patterns/State_Machine.sol\":417:422  stage */\n      0x0\n      dup1\n      swap1\n      sload\n      swap1\n      0x100\n      exp\n      swap1\n      div\n      0xff\n      and\n        /* \"Solidity Patterns/State_Machine.sol\":417:432  stage == _stage */\n      0x3\n      dup2\n      gt\n      iszero\n      tag_45\n      jumpi\n      invalid\n    tag_45:\n      eq\n        /* \"Solidity Patterns/State_Machine.sol\":409:433  require(stage == _stage) */\n      iszero\n      iszero\n      tag_46\n      jumpi\n      0x0\n      dup1\n      revert\n    tag_46:\n        /* \"Solidity Patterns/State_Machine.sol\":1211:1314  function cleanup() public atStage(Stages.Finished) {... */\n      pop\n      jump\t// out\n        /* \"Solidity Patterns/State_Machine.sol\":936:1053  function reveal() public timedTransitions atStage(Stages.RevealBids) {... */\n    tag_15:\n        /* \"Solidity Patterns/State_Machine.sol\":580:605  Stages.AcceptingBlindBids */\n      0x0\n        /* \"Solidity Patterns/State_Machine.sol\":571:605  stage == Stages.AcceptingBlindBids */\n      0x3\n      dup2\n      gt\n      iszero\n      tag_49\n      jumpi\n      invalid\n    tag_49:\n        /* \"Solidity Patterns/State_Machine.sol\":571:576  stage */\n      0x0\n      dup1\n      swap1\n      sload\n      swap1\n      0x100\n      exp\n      swap1\n      div\n      0xff\n      and\n        /* \"Solidity Patterns/State_Machine.sol\":571:605  stage == Stages.AcceptingBlindBids */\n      0x3\n      dup2\n      gt\n      iszero\n      tag_50\n      jumpi\n      invalid\n    tag_50:\n      eq\n        /* \"Solidity Patterns/State_Machine.sol\":571:637  stage == Stages.AcceptingBlindBids && now >= creationTime + 6 days */\n      dup1\n      iszero\n      tag_51\n      jumpi\n      pop\n        /* \"Solidity Patterns/State_Machine.sol\":631:637  6 days */\n      0x7e900\n        /* \"Solidity Patterns/State_Machine.sol\":616:628  creationTime */\n      sload(0x1)\n        /* \"Solidity Patterns/State_Machine.sol\":616:637  creationTime + 6 days */\n      add\n        /* \"Solidity Patterns/State_Machine.sol\":609:612  now */\n      timestamp\n        /* \"Solidity Patterns/State_Machine.sol\":609:637  now >= creationTime + 6 days */\n      lt\n      iszero\n        /* \"Solidity Patterns/State_Machine.sol\":571:637  stage == Stages.AcceptingBlindBids && now >= creationTime + 6 days */\n    tag_51:\n        /* \"Solidity Patterns/State_Machine.sol\":567:675  if (stage == Stages.AcceptingBlindBids && now >= creationTime + 6 days) {... */\n      iszero\n      tag_52\n      jumpi\n        /* \"Solidity Patterns/State_Machine.sol\":653:664  nextStage() */\n      tag_53\n        /* \"Solidity Patterns/State_Machine.sol\":653:662  nextStage */\n      tag_32\n        /* \"Solidity Patterns/State_Machine.sol\":653:664  nextStage() */\n      jump\t// in\n    tag_53:\n        /* \"Solidity Patterns/State_Machine.sol\":567:675  if (stage == Stages.AcceptingBlindBids && now >= creationTime + 6 days) {... */\n    tag_52:\n        /* \"Solidity Patterns/State_Machine.sol\":697:714  Stages.RevealBids */\n      0x1\n        /* \"Solidity Patterns/State_Machine.sol\":688:714  stage == Stages.RevealBids */\n      0x3\n      dup2\n      gt\n      iszero\n      tag_54\n      jumpi\n      invalid\n    tag_54:\n        /* \"Solidity Patterns/State_Machine.sol\":688:693  stage */\n      0x0\n      dup1\n      swap1\n      sload\n      swap1\n      0x100\n      exp\n      swap1\n      div\n      0xff\n      and\n        /* \"Solidity Patterns/State_Machine.sol\":688:714  stage == Stages.RevealBids */\n      0x3\n      dup2\n      gt\n      iszero\n      tag_55\n      jumpi\n      invalid\n    tag_55:\n      eq\n        /* \"Solidity Patterns/State_Machine.sol\":688:747  stage == Stages.RevealBids && now >= creationTime + 10 days */\n      dup1\n      iszero\n      tag_56\n      jumpi\n      pop\n        /* \"Solidity Patterns/State_Machine.sol\":740:747  10 days */\n      0xd2f00\n        /* \"Solidity Patterns/State_Machine.sol\":725:737  creationTime */\n      sload(0x1)\n        /* \"Solidity Patterns/State_Machine.sol\":725:747  creationTime + 10 days */\n      add\n        /* \"Solidity Patterns/State_Machine.sol\":718:721  now */\n      timestamp\n        /* \"Solidity Patterns/State_Machine.sol\":718:747  now >= creationTime + 10 days */\n      lt\n      iszero\n        /* \"Solidity Patterns/State_Machine.sol\":688:747  stage == Stages.RevealBids && now >= creationTime + 10 days */\n    tag_56:\n        /* \"Solidity Patterns/State_Machine.sol\":684:785  if (stage == Stages.RevealBids && now >= creationTime + 10 days) {... */\n      iszero\n      tag_57\n      jumpi\n        /* \"Solidity Patterns/State_Machine.sol\":763:774  nextStage() */\n      tag_58\n        /* \"Solidity Patterns/State_Machine.sol\":763:772  nextStage */\n      tag_32\n        /* \"Solidity Patterns/State_Machine.sol\":763:774  nextStage() */\n      jump\t// in\n    tag_58:\n        /* \"Solidity Patterns/State_Machine.sol\":684:785  if (stage == Stages.RevealBids && now >= creationTime + 10 days) {... */\n    tag_57:\n        /* \"Solidity Patterns/State_Machine.sol\":986:1003  Stages.RevealBids */\n      0x1\n        /* \"Solidity Patterns/State_Machine.sol\":426:432  _stage */\n      dup1\n        /* \"Solidity Patterns/State_Machine.sol\":417:432  stage == _stage */\n      0x3\n      dup2\n      gt\n      iszero\n      tag_60\n      jumpi\n      invalid\n    tag_60:\n        /* \"Solidity Patterns/State_Machine.sol\":417:422  stage */\n      0x0\n      dup1\n      swap1\n      sload\n      swap1\n      0x100\n      exp\n      swap1\n      div\n      0xff\n      and\n        /* \"Solidity Patterns/State_Machine.sol\":417:432  stage == _stage */\n      0x3\n      dup2\n      gt\n      iszero\n      tag_61\n      jumpi\n      invalid\n    tag_61:\n      eq\n        /* \"Solidity Patterns/State_Machine.sol\":409:433  require(stage == _stage) */\n      iszero\n      iszero\n      tag_62\n      jumpi\n      0x0\n      dup1\n      revert\n    tag_62:\n        /* \"Solidity Patterns/State_Machine.sol\":794:795  _ */\n      pop\n        /* \"Solidity Patterns/State_Machine.sol\":936:1053  function reveal() public timedTransitions atStage(Stages.RevealBids) {... */\n      jump\t// out\n        /* \"Solidity Patterns/State_Machine.sol\":276:323  Stages public stage = Stages.AcceptingBlindBids */\n    tag_18:\n      0x0\n      dup1\n      swap1\n      sload\n      swap1\n      0x100\n      exp\n      swap1\n      div\n      0xff\n      and\n      dup2\n      jump\t// out\n        /* \"Solidity Patterns/State_Machine.sol\":330:360  uint public creationTime = now */\n    tag_22:\n      sload(0x1)\n      dup2\n      jump\t// out\n        /* \"Solidity Patterns/State_Machine.sol\":1059:1205  function claimGoods() public timedTransitions atStage(Stages.WinnerDetermined) transitionAfter {... */\n    tag_25:\n        /* \"Solidity Patterns/State_Machine.sol\":580:605  Stages.AcceptingBlindBids */\n      0x0\n        /* \"Solidity Patterns/State_Machine.sol\":571:605  stage == Stages.AcceptingBlindBids */\n      0x3\n      dup2\n      gt\n      iszero\n      tag_65\n      jumpi\n      invalid\n    tag_65:\n        /* \"Solidity Patterns/State_Machine.sol\":571:576  stage */\n      0x0\n      dup1\n      swap1\n      sload\n      swap1\n      0x100\n      exp\n      swap1\n      div\n      0xff\n      and\n        /* \"Solidity Patterns/State_Machine.sol\":571:605  stage == Stages.AcceptingBlindBids */\n      0x3\n      dup2\n      gt\n      iszero\n      tag_66\n      jumpi\n      invalid\n    tag_66:\n      eq\n        /* \"Solidity Patterns/State_Machine.sol\":571:637  stage == Stages.AcceptingBlindBids && now >= creationTime + 6 days */\n      dup1\n      iszero\n      tag_67\n      jumpi\n      pop\n        /* \"Solidity Patterns/State_Machine.sol\":631:637  6 days */\n      0x7e900\n        /* \"Solidity Patterns/State_Machine.sol\":616:628  creationTime */\n      sload(0x1)\n        /* \"Solidity Patterns/State_Machine.sol\":616:637  creationTime + 6 days */\n      add\n        /* \"Solidity Patterns/State_Machine.sol\":609:612  now */\n      timestamp\n        /* \"Solidity Patterns/State_Machine.sol\":609:637  now >= creationTime + 6 days */\n      lt\n      iszero\n        /* \"Solidity Patterns/State_Machine.sol\":571:637  stage == Stages.AcceptingBlindBids && now >= creationTime + 6 days */\n    tag_67:\n        /* \"Solidity Patterns/State_Machine.sol\":567:675  if (stage == Stages.AcceptingBlindBids && now >= creationTime + 6 days) {... */\n      iszero\n      tag_68\n      jumpi\n        /* \"Solidity Patterns/State_Machine.sol\":653:664  nextStage() */\n      tag_69\n        /* \"Solidity Patterns/State_Machine.sol\":653:662  nextStage */\n      tag_32\n        /* \"Solidity Patterns/State_Machine.sol\":653:664  nextStage() */\n      jump\t// in\n    tag_69:\n        /* \"Solidity Patterns/State_Machine.sol\":567:675  if (stage == Stages.AcceptingBlindBids && now >= creationTime + 6 days) {... */\n    tag_68:\n        /* \"Solidity Patterns/State_Machine.sol\":697:714  Stages.RevealBids */\n      0x1\n        /* \"Solidity Patterns/State_Machine.sol\":688:714  stage == Stages.RevealBids */\n      0x3\n      dup2\n      gt\n      iszero\n      tag_70\n      jumpi\n      invalid\n    tag_70:\n        /* \"Solidity Patterns/State_Machine.sol\":688:693  stage */\n      0x0\n      dup1\n      swap1\n      sload\n      swap1\n      0x100\n      exp\n      swap1\n      div\n      0xff\n      and\n        /* \"Solidity Patterns/State_Machine.sol\":688:714  stage == Stages.RevealBids */\n      0x3\n      dup2\n      gt\n      iszero\n      tag_71\n      jumpi\n      invalid\n    tag_71:\n      eq\n        /* \"Solidity Patterns/State_Machine.sol\":688:747  stage == Stages.RevealBids && now >= creationTime + 10 days */\n      dup1\n      iszero\n      tag_72\n      jumpi\n      pop\n        /* \"Solidity Patterns/State_Machine.sol\":740:747  10 days */\n      0xd2f00\n        /* \"Solidity Patterns/State_Machine.sol\":725:737  creationTime */\n      sload(0x1)\n        /* \"Solidity Patterns/State_Machine.sol\":725:747  creationTime + 10 days */\n      add\n        /* \"Solidity Patterns/State_Machine.sol\":718:721  now */\n      timestamp\n        /* \"Solidity Patterns/State_Machine.sol\":718:747  now >= creationTime + 10 days */\n      lt\n      iszero\n        /* \"Solidity Patterns/State_Machine.sol\":688:747  stage == Stages.RevealBids && now >= creationTime + 10 days */\n    tag_72:\n        /* \"Solidity Patterns/State_Machine.sol\":684:785  if (stage == Stages.RevealBids && now >= creationTime + 10 days) {... */\n      iszero\n      tag_73\n      jumpi\n        /* \"Solidity Patterns/State_Machine.sol\":763:774  nextStage() */\n      tag_74\n        /* \"Solidity Patterns/State_Machine.sol\":763:772  nextStage */\n      tag_32\n        /* \"Solidity Patterns/State_Machine.sol\":763:774  nextStage() */\n      jump\t// in\n    tag_74:\n        /* \"Solidity Patterns/State_Machine.sol\":684:785  if (stage == Stages.RevealBids && now >= creationTime + 10 days) {... */\n    tag_73:\n        /* \"Solidity Patterns/State_Machine.sol\":1113:1136  Stages.WinnerDetermined */\n      0x2\n        /* \"Solidity Patterns/State_Machine.sol\":426:432  _stage */\n      dup1\n        /* \"Solidity Patterns/State_Machine.sol\":417:432  stage == _stage */\n      0x3\n      dup2\n      gt\n      iszero\n      tag_76\n      jumpi\n      invalid\n    tag_76:\n        /* \"Solidity Patterns/State_Machine.sol\":417:422  stage */\n      0x0\n      dup1\n      swap1\n      sload\n      swap1\n      0x100\n      exp\n      swap1\n      div\n      0xff\n      and\n        /* \"Solidity Patterns/State_Machine.sol\":417:432  stage == _stage */\n      0x3\n      dup2\n      gt\n      iszero\n      tag_77\n      jumpi\n      invalid\n    tag_77:\n      eq\n        /* \"Solidity Patterns/State_Machine.sol\":409:433  require(stage == _stage) */\n      iszero\n      iszero\n      tag_78\n      jumpi\n      0x0\n      dup1\n      revert\n    tag_78:\n        /* \"Solidity Patterns/State_Machine.sol\":505:516  nextStage() */\n      tag_81\n        /* \"Solidity Patterns/State_Machine.sol\":505:514  nextStage */\n      tag_32\n        /* \"Solidity Patterns/State_Machine.sol\":505:516  nextStage() */\n      jump\t// in\n    tag_81:\n        /* \"Solidity Patterns/State_Machine.sol\":794:795  _ */\n      pop\n        /* \"Solidity Patterns/State_Machine.sol\":1059:1205  function claimGoods() public timedTransitions atStage(Stages.WinnerDetermined) transitionAfter {... */\n      jump\t// out\n        /* \"Solidity Patterns/State_Machine.sol\":1320:1398  function nextStage() internal {... */\n    tag_32:\n        /* \"Solidity Patterns/State_Machine.sol\":1389:1390  1 */\n      0x1\n        /* \"Solidity Patterns/State_Machine.sol\":1380:1385  stage */\n      0x0\n      dup1\n      swap1\n      sload\n      swap1\n      0x100\n      exp\n      swap1\n      div\n      0xff\n      and\n        /* \"Solidity Patterns/State_Machine.sol\":1375:1386  uint(stage) */\n      0x3\n      dup2\n      gt\n      iszero\n      tag_83\n      jumpi\n      invalid\n    tag_83:\n        /* \"Solidity Patterns/State_Machine.sol\":1375:1390  uint(stage) + 1 */\n      add\n        /* \"Solidity Patterns/State_Machine.sol\":1368:1391  Stages(uint(stage) + 1) */\n      0x3\n      dup2\n      gt\n      iszero\n      tag_84\n      jumpi\n      invalid\n    tag_84:\n        /* \"Solidity Patterns/State_Machine.sol\":1360:1365  stage */\n      0x0\n      dup1\n        /* \"Solidity Patterns/State_Machine.sol\":1360:1391  stage = Stages(uint(stage) + 1) */\n      0x100\n      exp\n      dup2\n      sload\n      dup2\n      0xff\n      mul\n      not\n      and\n      swap1\n      dup4\n      0x3\n      dup2\n      gt\n      iszero\n      tag_85\n      jumpi\n      invalid\n    tag_85:\n      mul\n      or\n      swap1\n      sstore\n      pop\n        /* \"Solidity Patterns/State_Machine.sol\":1320:1398  function nextStage() internal {... */\n      jump\t// out\n\n    auxdata: 0xa165627a7a72305820aedb9968d972fd7f73e5f54d8697158bcd7ed307a9df988df00984365894a0560029\n}\n",
				"bytecode": {
					"linkReferences": {},
					"object": "608060405260008060006101000a81548160ff0219169083600381111561002257fe5b02179055504260015534801561003757600080fd5b50610459806100476000396000f300608060405260043610610078576000357c0100000000000000000000000000000000000000000000000000000000900463ffffffff1680631998aeef1461007d5780633cecd71914610087578063a475b5dd1461009e578063c040e6b8146100b5578063d8270dce146100ee578063ec29b40514610119575b600080fd5b610085610130565b005b34801561009357600080fd5b5061009c6101f9565b005b3480156100aa57600080fd5b506100b3610230565b005b3480156100c157600080fd5b506100ca6102f9565b604051808260038111156100da57fe5b60ff16815260200191505060405180910390f35b3480156100fa57600080fd5b5061010361030b565b6040518082815260200191505060405180910390f35b34801561012557600080fd5b5061012e610311565b005b6000600381111561013d57fe5b6000809054906101000a900460ff16600381111561015757fe5b14801561016b57506207e900600154014210155b15610179576101786103e2565b5b6001600381111561018657fe5b6000809054906101000a900460ff1660038111156101a057fe5b1480156101b45750620d2f00600154014210155b156101c2576101c16103e2565b5b60008060038111156101d057fe5b6000809054906101000a900460ff1660038111156101ea57fe5b1415156101f657600080fd5b50565b600380600381111561020757fe5b6000809054906101000a900460ff16600381111561022157fe5b14151561022d57600080fd5b50565b6000600381111561023d57fe5b6000809054906101000a900460ff16600381111561025757fe5b14801561026b57506207e900600154014210155b15610279576102786103e2565b5b6001600381111561028657fe5b6000809054906101000a900460ff1660038111156102a057fe5b1480156102b45750620d2f00600154014210155b156102c2576102c16103e2565b5b60018060038111156102d057fe5b6000809054906101000a900460ff1660038111156102ea57fe5b1415156102f657600080fd5b50565b6000809054906101000a900460ff1681565b60015481565b6000600381111561031e57fe5b6000809054906101000a900460ff16600381111561033857fe5b14801561034c57506207e900600154014210155b1561035a576103596103e2565b5b6001600381111561036757fe5b6000809054906101000a900460ff16600381111561038157fe5b1480156103955750620d2f00600154014210155b156103a3576103a26103e2565b5b60028060038111156103b157fe5b6000809054906101000a900460ff1660038111156103cb57fe5b1415156103d757600080fd5b6103df6103e2565b50565b60016000809054906101000a900460ff1660038111156103fe57fe5b01600381111561040a57fe5b6000806101000a81548160ff0219169083600381111561042657fe5b02179055505600a165627a7a72305820aedb9968d972fd7f73e5f54d8697158bcd7ed307a9df988df00984365894a0560029",
					"opcodes": "PUSH1 0x80 PUSH1 0x40 MSTORE PUSH1 0x0 DUP1 PUSH1 0x0 PUSH2 0x100 EXP DUP2 SLOAD DUP2 PUSH1 0xFF MUL NOT AND SWAP1 DUP4 PUSH1 0x3 DUP2 GT ISZERO PUSH2 0x22 JUMPI INVALID JUMPDEST MUL OR SWAP1 SSTORE POP TIMESTAMP PUSH1 0x1 SSTORE CALLVALUE DUP1 ISZERO PUSH2 0x37 JUMPI PUSH1 0x0 DUP1 REVERT JUMPDEST POP PUSH2 0x459 DUP1 PUSH2 0x47 PUSH1 0x0 CODECOPY PUSH1 0x0 RETURN STOP PUSH1 0x80 PUSH1 0x40 MSTORE PUSH1 0x4 CALLDATASIZE LT PUSH2 0x78 JUMPI PUSH1 0x0 CALLDATALOAD PUSH29 0x100000000000000000000000000000000000000000000000000000000 SWAP1 DIV PUSH4 0xFFFFFFFF AND DUP1 PUSH4 0x1998AEEF EQ PUSH2 0x7D JUMPI DUP1 PUSH4 0x3CECD719 EQ PUSH2 0x87 JUMPI DUP1 PUSH4 0xA475B5DD EQ PUSH2 0x9E JUMPI DUP1 PUSH4 0xC040E6B8 EQ PUSH2 0xB5 JUMPI DUP1 PUSH4 0xD8270DCE EQ PUSH2 0xEE JUMPI DUP1 PUSH4 0xEC29B405 EQ PUSH2 0x119 JUMPI JUMPDEST PUSH1 0x0 DUP1 REVERT JUMPDEST PUSH2 0x85 PUSH2 0x130 JUMP JUMPDEST STOP JUMPDEST CALLVALUE DUP1 ISZERO PUSH2 0x93 JUMPI PUSH1 0x0 DUP1 REVERT JUMPDEST POP PUSH2 0x9C PUSH2 0x1F9 JUMP JUMPDEST STOP JUMPDEST CALLVALUE DUP1 ISZERO PUSH2 0xAA JUMPI PUSH1 0x0 DUP1 REVERT JUMPDEST POP PUSH2 0xB3 PUSH2 0x230 JUMP JUMPDEST STOP JUMPDEST CALLVALUE DUP1 ISZERO PUSH2 0xC1 JUMPI PUSH1 0x0 DUP1 REVERT JUMPDEST POP PUSH2 0xCA PUSH2 0x2F9 JUMP JUMPDEST PUSH1 0x40 MLOAD DUP1 DUP3 PUSH1 0x3 DUP2 GT ISZERO PUSH2 0xDA JUMPI INVALID JUMPDEST PUSH1 0xFF AND DUP2 MSTORE PUSH1 0x20 ADD SWAP2 POP POP PUSH1 0x40 MLOAD DUP1 SWAP2 SUB SWAP1 RETURN JUMPDEST CALLVALUE DUP1 ISZERO PUSH2 0xFA JUMPI PUSH1 0x0 DUP1 REVERT JUMPDEST POP PUSH2 0x103 PUSH2 0x30B JUMP JUMPDEST PUSH1 0x40 MLOAD DUP1 DUP3 DUP2 MSTORE PUSH1 0x20 ADD SWAP2 POP POP PUSH1 0x40 MLOAD DUP1 SWAP2 SUB SWAP1 RETURN JUMPDEST CALLVALUE DUP1 ISZERO PUSH2 0x125 JUMPI PUSH1 0x0 DUP1 REVERT JUMPDEST POP PUSH2 0x12E PUSH2 0x311 JUMP JUMPDEST STOP JUMPDEST PUSH1 0x0 PUSH1 0x3 DUP2 GT ISZERO PUSH2 0x13D JUMPI INVALID JUMPDEST PUSH1 0x0 DUP1 SWAP1 SLOAD SWAP1 PUSH2 0x100 EXP SWAP1 DIV PUSH1 0xFF AND PUSH1 0x3 DUP2 GT ISZERO PUSH2 0x157 JUMPI INVALID JUMPDEST EQ DUP1 ISZERO PUSH2 0x16B JUMPI POP PUSH3 0x7E900 PUSH1 0x1 SLOAD ADD TIMESTAMP LT ISZERO JUMPDEST ISZERO PUSH2 0x179 JUMPI PUSH2 0x178 PUSH2 0x3E2 JUMP JUMPDEST JUMPDEST PUSH1 0x1 PUSH1 0x3 DUP2 GT ISZERO PUSH2 0x186 JUMPI INVALID JUMPDEST PUSH1 0x0 DUP1 SWAP1 SLOAD SWAP1 PUSH2 0x100 EXP SWAP1 DIV PUSH1 0xFF AND PUSH1 0x3 DUP2 GT ISZERO PUSH2 0x1A0 JUMPI INVALID JUMPDEST EQ DUP1 ISZERO PUSH2 0x1B4 JUMPI POP PUSH3 0xD2F00 PUSH1 0x1 SLOAD ADD TIMESTAMP LT ISZERO JUMPDEST ISZERO PUSH2 0x1C2 JUMPI PUSH2 0x1C1 PUSH2 0x3E2 JUMP JUMPDEST JUMPDEST PUSH1 0x0 DUP1 PUSH1 0x3 DUP2 GT ISZERO PUSH2 0x1D0 JUMPI INVALID JUMPDEST PUSH1 0x0 DUP1 SWAP1 SLOAD SWAP1 PUSH2 0x100 EXP SWAP1 DIV PUSH1 0xFF AND PUSH1 0x3 DUP2 GT ISZERO PUSH2 0x1EA JUMPI INVALID JUMPDEST EQ ISZERO ISZERO PUSH2 0x1F6 JUMPI PUSH1 0x0 DUP1 REVERT JUMPDEST POP JUMP JUMPDEST PUSH1 0x3 DUP1 PUSH1 0x3 DUP2 GT ISZERO PUSH2 0x207 JUMPI INVALID JUMPDEST PUSH1 0x0 DUP1 SWAP1 SLOAD SWAP1 PUSH2 0x100 EXP SWAP1 DIV PUSH1 0xFF AND PUSH1 0x3 DUP2 GT ISZERO PUSH2 0x221 JUMPI INVALID JUMPDEST EQ ISZERO ISZERO PUSH2 0x22D JUMPI PUSH1 0x0 DUP1 REVERT JUMPDEST POP JUMP JUMPDEST PUSH1 0x0 PUSH1 0x3 DUP2 GT ISZERO PUSH2 0x23D JUMPI INVALID JUMPDEST PUSH1 0x0 DUP1 SWAP1 SLOAD SWAP1 PUSH2 0x100 EXP SWAP1 DIV PUSH1 0xFF AND PUSH1 0x3 DUP2 GT ISZERO PUSH2 0x257 JUMPI INVALID JUMPDEST EQ DUP1 ISZERO PUSH2 0x26B JUMPI POP PUSH3 0x7E900 PUSH1 0x1 SLOAD ADD TIMESTAMP LT ISZERO JUMPDEST ISZERO PUSH2 0x279 JUMPI PUSH2 0x278 PUSH2 0x3E2 JUMP JUMPDEST JUMPDEST PUSH1 0x1 PUSH1 0x3 DUP2 GT ISZERO PUSH2 0x286 JUMPI INVALID JUMPDEST PUSH1 0x0 DUP1 SWAP1 SLOAD SWAP1 PUSH2 0x100 EXP SWAP1 DIV PUSH1 0xFF AND PUSH1 0x3 DUP2 GT ISZERO PUSH2 0x2A0 JUMPI INVALID JUMPDEST EQ DUP1 ISZERO PUSH2 0x2B4 JUMPI POP PUSH3 0xD2F00 PUSH1 0x1 SLOAD ADD TIMESTAMP LT ISZERO JUMPDEST ISZERO PUSH2 0x2C2 JUMPI PUSH2 0x2C1 PUSH2 0x3E2 JUMP JUMPDEST JUMPDEST PUSH1 0x1 DUP1 PUSH1 0x3 DUP2 GT ISZERO PUSH2 0x2D0 JUMPI INVALID JUMPDEST PUSH1 0x0 DUP1 SWAP1 SLOAD SWAP1 PUSH2 0x100 EXP SWAP1 DIV PUSH1 0xFF AND PUSH1 0x3 DUP2 GT ISZERO PUSH2 0x2EA JUMPI INVALID JUMPDEST EQ ISZERO ISZERO PUSH2 0x2F6 JUMPI PUSH1 0x0 DUP1 REVERT JUMPDEST POP JUMP JUMPDEST PUSH1 0x0 DUP1 SWAP1 SLOAD SWAP1 PUSH2 0x100 EXP SWAP1 DIV PUSH1 0xFF AND DUP2 JUMP JUMPDEST PUSH1 0x1 SLOAD DUP2 JUMP JUMPDEST PUSH1 0x0 PUSH1 0x3 DUP2 GT ISZERO PUSH2 0x31E JUMPI INVALID JUMPDEST PUSH1 0x0 DUP1 SWAP1 SLOAD SWAP1 PUSH2 0x100 EXP SWAP1 DIV PUSH1 0xFF AND PUSH1 0x3 DUP2 GT ISZERO PUSH2 0x338 JUMPI INVALID JUMPDEST EQ DUP1 ISZERO PUSH2 0x34C JUMPI POP PUSH3 0x7E900 PUSH1 0x1 SLOAD ADD TIMESTAMP LT ISZERO JUMPDEST ISZERO PUSH2 0x35A JUMPI PUSH2 0x359 PUSH2 0x3E2 JUMP JUMPDEST JUMPDEST PUSH1 0x1 PUSH1 0x3 DUP2 GT ISZERO PUSH2 0x367 JUMPI INVALID JUMPDEST PUSH1 0x0 DUP1 SWAP1 SLOAD SWAP1 PUSH2 0x100 EXP SWAP1 DIV PUSH1 0xFF AND PUSH1 0x3 DUP2 GT ISZERO PUSH2 0x381 JUMPI INVALID JUMPDEST EQ DUP1 ISZERO PUSH2 0x395 JUMPI POP PUSH3 0xD2F00 PUSH1 0x1 SLOAD ADD TIMESTAMP LT ISZERO JUMPDEST ISZERO PUSH2 0x3A3 JUMPI PUSH2 0x3A2 PUSH2 0x3E2 JUMP JUMPDEST JUMPDEST PUSH1 0x2 DUP1 PUSH1 0x3 DUP2 GT ISZERO PUSH2 0x3B1 JUMPI INVALID JUMPDEST PUSH1 0x0 DUP1 SWAP1 SLOAD SWAP1 PUSH2 0x100 EXP SWAP1 DIV PUSH1 0xFF AND PUSH1 0x3 DUP2 GT ISZERO PUSH2 0x3CB JUMPI INVALID JUMPDEST EQ ISZERO ISZERO PUSH2 0x3D7 JUMPI PUSH1 0x0 DUP1 REVERT JUMPDEST PUSH2 0x3DF PUSH2 0x3E2 JUMP JUMPDEST POP JUMP JUMPDEST PUSH1 0x1 PUSH1 0x0 DUP1 SWAP1 SLOAD SWAP1 PUSH2 0x100 EXP SWAP1 DIV PUSH1 0xFF AND PUSH1 0x3 DUP2 GT ISZERO PUSH2 0x3FE JUMPI INVALID JUMPDEST ADD PUSH1 0x3 DUP2 GT ISZERO PUSH2 0x40A JUMPI INVALID JUMPDEST PUSH1 0x0 DUP1 PUSH2 0x100 EXP DUP2 SLOAD DUP2 PUSH1 0xFF MUL NOT AND SWAP1 DUP4 PUSH1 0x3 DUP2 GT ISZERO PUSH2 0x426 JUMPI INVALID JUMPDEST MUL OR SWAP1 SSTORE POP JUMP STOP LOG1 PUSH6 0x627A7A723058 KECCAK256 0xae 0xdb SWAP10 PUSH9 0xD972FD7F73E5F54D86 SWAP8 ISZERO DUP12 0xcd PUSH31 0xD307A9DF988DF00984365894A0560029000000000000000000000000000000 "
				},
				"gasEstimates": {
					"creation": {
						"codeDepositCost": "222600",
						"executionCost": "40555",
						"totalCost": "263155"
					},
					"external": {
						"bid()": "infinite",
						"claimGoods()": "infinite",
						"cleanup()": "477",
						"creationTime()": "482",
						"reveal()": "infinite",
						"stage()": "528"
					},
					"internal": {
						"nextStage()": "20590"
					}
				},
				"methodIdentifiers": {
					"bid()": "1998aeef",
					"claimGoods()": "ec29b405",
					"cleanup()": "3cecd719",
					"creationTime()": "d8270dce",
					"reveal()": "a475b5dd",
					"stage()": "c040e6b8"
				}
			},
			"userdoc": {
				"methods": {}
			}
		}
	}
}